:020000040800F2
:100000002823002091010008792B00082F290008DF
:10001000D92A000867040008193D00080000000004
:10002000000000000000000000000000F53500089E
:100030006B04000800000000B52B00081137000811
:10004000AB010008AB010008AB010008AB010008E0
:10005000AB010008AB010008AB010008AB010008D0
:10006000AB010008AB010008AB010008AB010008C0
:10007000AB010008AB010008AB010008AB010008B0
:10008000AB010008AB010008AB010008AB010008A0
:10009000AB010008AB010008AB010008AB01000890
:1000A00000000000AB010008AB010008AB01000834
:1000B0007D370008AB010008AB010008AB01000868
:1000C000AB010008AB010008AB010008AB01000860
:1000D000AB010008093C0008493C0008AB010008DE
:1000E000E9040008AB010008AB010008AB010008FF
:1000F000AB01000800F002F800F03AF80AA090E81E
:10010000000C82448344AAF10107DA4501D100F0D2
:100110002FF8AFF2090EBAE80F0013F0010F18BF65
:10012000FB1A43F001031847143F0000343F00005E
:10013000103A24BF78C878C1FAD8520724BF30C813
:1001400030C144BF04680C607047000000230024E5
:1001500000250026103A28BF78C1FBD8520728BFD7
:1001600030C148BF0B6070471FB51FBD10B510BD33
:1001700000F0F3F81146FFF7F7FF03F0F9FD00F088
:1001800011F903B4FFF7F2FF03BC03F0EFFD000029
:100190000948804709480047FEE7FEE7FEE7FEE71B
:1001A000FEE7FEE7FEE7FEE7FEE7FEE70448054957
:1001B000054A064B7047000019370008F500000893
:1001C000281D002028230020281F0020281F002091
:1001D0007047032A40F2308010F0030C00F01580C5
:1001E00011F8013BBCF1020F624498BF11F801CB3A
:1001F00000F8013B38BF11F8013BA2F1040298BF9F
:1002000000F801CB38BF00F8013B11F0030300F008
:100210002580083AC0F0088051F8043B083A51F8AC
:1002200004CBA0E80810F5E7121D5CBF51F8043BB1
:1002300040F8043BAFF30080D20724BF11F8013B24
:1002400011F801CB48BF11F8012B24BF00F8013B86
:1002500000F801CB48BF00F8012B704710B5203AD9
:10026000C0F00B80B1E81850203AA0E81850B1E86F
:100270001850A0E81850BFF4F5AF5FEA027C24BF25
:10028000B1E81850A0E8185044BF18C918C0BDE81C
:1002900010405FEA827C24BF51F8043B40F8043BE5
:1002A00008BF7047D20728BF31F8023B48BF11F89A
:1002B000012B28BF20F8023B48BF00F8012B7047F4
:1002C0004FF000020429C0F0128010F0030C00F07F
:1002D0001B80CCF1040CBCF1020F18BF00F8012BFD
:1002E000A8BF20F8022BA1EB0C0100F00DB85FEACB
:1002F000C17C24BF00F8012B00F8012B48BF00F897
:10030000012B70474FF0000200B513469446964605
:10031000203922BFA0E80C50A0E80C50B1F1200118
:10032000BFF4F7AF090728BFA0E80C5048BF0CC0C6
:100330005DF804EB890028BF40F8042B08BF704724
:1003400048BF20F8022B11F0804F18BF00F8012B96
:1003500070477047704770477047754600F02CF83B
:10036000AE4605006946534620F00700854618B0A2
:1003700020B5FFF71BFFBDE820404FF000064FF00F
:1003800000074FF000084FF0000B21F00701AC46CA
:10039000ACE8C009ACE8C009ACE8C009ACE8C009E9
:1003A0008D46704710B50446AFF300802046BDE887
:1003B0001040FFF7E6BE000000487047C81C002050
:1003C00010B586B0044600BF1948006840F002002E
:1003D000174908600846006800F00200009000BF5E
:1003E00000BF881501900120029000200390032097
:1003F000049001A90F4800F0DFF8012C05D101227B
:1004000011020C4800F0C0F906E02CB900224FF4AC
:100410008071084800F0B8F94FF480700190002016
:10042000049001A9034800F0C7F806B010BD000011
:100430001C3802400004024070B504460D460026F8
:1004400000BF0DE00120FFF7BBFF284600F018F8C1
:100450000020FFF7B5FF284600F012F8701C86B2A6
:10046000A642EFDB70BD00BFFEE7704710B5044643
:10047000042001F0E6FE0148046010BD0C000020DD
:1004800030B50446002504E04FF47A7000F004F81B
:100490006D1CA542F8D330BD70B5034600224FF065
:1004A000E02675690F4E366803FB06F44FF0E02630
:1004B000B16913E04FF0E026B06988420ED088425F
:1004C00002D20E1A324402E02E1A0E443244014681
:1004D000C2EB0226B4EB860F00D800E0EAE700BFCB
:1004E00070BD00000C00002010B54FF4806000F0DB
:1004F00055F810BD38B504460020009020680090E3
:1005000029B902F10800009D2844009004E002F19E
:100510001400009D2844009000980360002038BD1E
:10052000024600BF5079012801D102207047012006
:10053000507100BF022010711068006801238B40C9
:1005400018431368186061B91068006800F03C0037
:100550003C2813D11068406840F0010013685860CF
:100560000CE01068006800F47010B0F5701F05D141
:100570001068406840F00200136858600120107154
:1005800000BF0020507100BF00BFCFE710B5044688
:10059000B4F5806F01D102F039FE10BD10B50446EC
:1005A00004480068204020B1024804602046FFF75C
:1005B000EDFF10BD1404014078B50346002200246D
:1005C0000020CAE0012696400D6805EA0604002CCA
:1005D00071D04D68022D02D04D68122D13D1D6086E
:1005E00003F1200555F826005507EE0E0F25B540FE
:1005F000A8435607F60E0D69B5402843D60803F107
:10060000200545F82600186856000325B540A84384
:100610000D7905F003055600B540284318604D6874
:10062000012D08D04D68022D05D04D68112D02D046
:100630004D68122D13D1986856000325B540A84384
:100640005600CD68B540284398605868012595400C
:10065000A8430D79C5F30015954028435860D86824
:1006600056000325B540A84356008D68B540284381
:10067000D8604D6805F08055B5F1805F6CD100BF42
:10068000394D2D6845F00105374E356035462D68EA
:1006900005F00105009500BF00BF344D960855F8E0
:1006A000260095072E0F0F25B540A843304DAB42CD
:1006B00002D1002515E04FE02E4DAB4201D10125BE
:1006C0000FE02D4DAB4201D102250AE02B4DAB428C
:1006D00001D1032505E02A4DAB4201D1042500E0FC
:1006E00005259607360FB5402843204D960845F856
:1006F0002600244D2868A0434D6805F48035B5F5E3
:10070000803F00D120431F4D28602D1D2868A04345
:100710004D6805F40035B5F5003F00D12043194D73
:100720002D1D28602D1D2868A0434D6805F48015F7
:10073000B5F5801F00D12043124D083528602D1DCE
:100740002868A0434D6805F40015B5F5001F00D1D9
:1007500020430C4D0C352860521C0D68D540002DEF
:100760007FF430AF78BD000020380240080001401F
:10077000000002400004024000080240000C024059
:1007800000100240000401400AB1816101E00B0445
:100790008361704701480068704700000000002036
:1007A00070B504460CB9012070BD4CF6CC402168F0
:1007B000086045F2555021680860D4E9001048608F
:1007C0002168A0688860FFF7E5FF054606E0FFF7AF
:1007D000E1FF401B302801D90320E5E72068C0680D
:1007E0000028F4D14AF6AA20216808600020DBE73F
:1007F00001464AF6AA200A681060002070470000EF
:1008000002480068401C0149086070470000002051
:1008100010B500BF0A48006840F0040008490860AD
:100820000846006840F00200086000BF052000F0A4
:1008300069F80F2000F006F800F018F8002010BD4D
:10084000003C024070B50446074800684FF47A71D6
:10085000B0FBF1F5284601F00EFD00222146501EA6
:1008600000F012F8002070BD1C000020704700BF8F
:1008700000F01F02012191404209920002F1E022A2
:10088000C2F8001100BF70472DE9F05F80460D46A9
:100890001646002702F072F9074639462A463346C3
:1008A00001F00700C0F1070ABAF1040F02D94FF0B6
:1008B000040A01E0C0F1070AD14600F1040ABAF1C6
:1008C000070F02D24FF0000A01E0A0F1030AD4465C
:1008D0004FF0010A0AFA09FAAAF1010A0AEA020A21
:1008E0000AFA0CFA4FF0010B0BFA0CFBABF1010BFF
:1008F0000BEA030B4AEA0B042146404602F046F994
:10090000BDE8F09F00BF00F00702064B19684FF6E4
:10091000FF031940044B0B4343EA0221014B1960CA
:1009200000BF70470CED00E00000FA050120010255
:1009300091FAA1F1B1FA81F1014A42F82100704720
:1009400000000E42F8B50446002600250027207856
:1009500000F0010000287DD0207800F0010000B1F7
:1009600000BF6948006800F0805070B900BF664859
:10097000006840F08050644908600846006800F054
:100980008050009000BF00BF01276048006800F45D
:100990008070B0B95D48006840F480705B490860C1
:1009A000FFF7F8FE064606E0FFF7F4FE801B64281A
:1009B00001D90320F8BD5548006800F48070002874
:1009C000F2D051482438006800F0C045606800F05B
:1009D000C040A8420DD0606800F44030B0F5403F00
:1009E00007D149482438006800F4003008B10120DC
:1009F000E0E745481030006800F44035002D59D03C
:100A0000606800F44030A84254D0207800F0010023
:100A100078B33D481030006820F440350120C1050E
:100A200091FAA1F1B1FA81F1394A02EB8101C1F8E1
:100A3000800600204FF4000191FAA1F1B1FA81F192
:100A400002EB8101C1F880062F481030056005F4E3
:100A5000807000E056E060B1FFF79CFE064609E0BA
:100A6000FFF798FE801B41F28831884202D90320AB
:100A7000A0E71FE04020C10091FAA1F1B1FA81F195
:100A800008430121B1EB601F03D11F4824380068DF
:100A900002E01D48103000684021CA0092FAA2F21C
:100AA000B2FA82F2114301F01F0201219140084085
:100AB0000028D5D000BF00BF606800F44030B0F51A
:100AC000403F0BD110482438006820F0C0406168D6
:100AD00001F0C04108430C492439086000BF0A48AE
:100AE00010300068616801F4403108430649103154
:100AF000086000BF012F05D10348006820F0805036
:100B000001490860002055E7243802400070004089
:100B10000000474270B504460D460026B348006801
:100B200000F00100A84218D200BF012D05D1AF4846
:100B3000006840F00400AD490860AC48006820F04F
:100B400001002843A949086000BF0846006800F07A
:100B50000100A84201D0012070BD207800F0020001
:100B6000022807D1A248006820F0F000A1680843DD
:100B70009F490860207800F0010000287BD0606861
:100B8000022821D12020010391FAA1F1B1FA81F1CB
:100B900008430121B1EB601F03D195480838006874
:100BA00002E093482C30006820210A0392FAA2F256
:100BB000B2FA82F2114301F01F0201219140084074
:100BC00000286CD10120C7E76068032820D12020CD
:100BD000010591FAA1F1B1FA81F108430121B1EBCC
:100BE000601F03D182480838006802E080482C303A
:100BF000006820210A0592FAA2F2B2FA82F21143A9
:100C000001F01F02012191400840A8BB0120A3E789
:100C10006068012820D12020022191FAA1F1B1FAC7
:100C200081F108430121B1EB601F03D170480838FE
:100C3000006802E06E482C3000682021022292FAFF
:100C4000A2F2B2FA82F2114301F01F020121914097
:100C5000084088B901207FE72020010191FAA1F125
:100C6000B1FA81F108430121B1EB601F05D1604861
:100C70000838006804E069E011E05D482C30006845
:100C800020210A0192FAA2F2B2FA82F2114301F093
:100C90001F0201219140084008B901205CE7544837
:100CA000006820F003006168084351490860FFF7BD
:100CB00071FD06466068022810D108E0FFF76AFD62
:100CC000801B41F28831884201D9032044E748481B
:100CD000006800F00C000828F0D137E060680328B5
:100CE00010D108E0FFF756FD801B41F288318842A1
:100CF00001D9032030E73E48006800F00C000C28C2
:100D0000F0D123E06068012810D108E0FFF742FD30
:100D1000801B41F28831884201D903201CE7344806
:100D2000006800F00C000428F0D10FE008E0FFF7A5
:100D300031FD801B41F28831884201D903200BE745
:100D40002B48006800F00C000028F0D1274800680C
:100D500000F00100A84218D900BF012D05D1234899
:100D6000006840F00400214908602048006820F035
:100D7000010028431D49086000BF0846006800F0D4
:100D80000100A84201D00120E6E6207800F004002E
:100D9000042807D11648006820F4E060E1680843A1
:100DA00013490860207800F00800082808D110488E
:100DB000006820F46050216940EAC1000C490860D5
:100DC00000F09AF80A49096801F0F001F02292FA5D
:100DD000A2F2B2FA82F2D140064A515CC8400649FA
:100DE00008600F20FFF72EFD0020B5E6003C024012
:100DF00008380240214000081C00002020480068FC
:100E000040F480701E4908601D480830006820F0DA
:100E100003001B4908310860194800681949084057
:100E2000174908600020164908310860081F00684B
:100E30001549084000214FF07F4292FAA2F2B2FA1F
:100E400082F2914041F4204108430D49091D086098
:100E50000846006820F4F85010214FF4F85292FA36
:100E6000A2F2B2FA82F2914008430549091D0860D6
:100E7000002003490C3108600448054908607047A8
:100E800000380240FEFFFAEEFF1FFF0068FF1F0060
:100E90001C00002001480068704700001C00002072
:100EA00000B5FFF7F7FF0749096801F4E0614FF467
:100EB000E06292FAA2F2B2FA82F2D140024A515CA6
:100EC000C84000BD083802403140000800B5FFF7B7
:100ED000E1FF0749096801F460514FF4605292FA4A
:100EE000A2F2B2FA82F2D140024A515CC84000BD7F
:100EF0000838024031400008F0B5002100230024EA
:100F0000002200250020254E316801F00C067EB33A
:100F1000042E04D0082E04D00C2E2AD103E0204841
:100F20003AE0204838E001F470164FF4701797FA51
:100F3000A7F7B7FA87F7FE401B4FBB5D01F44006E9
:100F40004FF4400797FAA7F7B7FA87F7FE40741CEB
:100F5000124E366806F4803626B1124E5E43B6FB5A
:100F6000F4F203E00E4E5E43B6FBF4F2104613E0DB
:100F700000E000BF094E361F366806F460464FF4A5
:100F8000604797FAA7F7B7FA87F726FA07F56E1CB6
:100F90000127B740F80300BF00BFF0BD083802408A
:100FA0000024F40000127A0018400008F8B5044646
:100FB0000025207800F00100002879D0F74800686B
:100FC00000F00C0008280CD0F448006800F00C0079
:100FD0000C282BD1F148006800F48030B0F5803F38
:100FE00024D12020010391FAA1F1B1FA81F1084343
:100FF0000121B1EB601F03D1E8480838006802E026
:10100000E6482C30006820210A0392FAA2F2B2FAD4
:1010100082F2114301F01F02012191400840002893
:10102000CBD06068002843D10120F8BD00BF6068C4
:10103000012808D1D9480838006840F48030D749E1
:10104000083908602DE0606868B9D448083800683D
:1010500020F48030D149083908600846006820F43F
:10106000802008601DE0606805280DD1CB48083855
:10107000006840F48020C9490839086008460068C3
:1010800040F4803008600CE0C4480838006820F460
:101090008030C249083908600846006820F4802082
:1010A000086000BF606860B3FFF774FB054607E0A7
:1010B00052E0FFF76FFB401B642801D90320B4E71F
:1010C0002020010391FAA1F1B1FA81F10843012135
:1010D000B1EB601F03D1B1480838006802E0AF48A7
:1010E0002C30006820210A0392FAA2F2B2FA82F2AE
:1010F000114301F01F020121914008400028D8D07F
:101100002AE0FFF747FB054606E0FFF743FB401BDD
:10111000642801D9032088E72020010391FAA1F176
:10112000B1FA81F108430121B1EB601F03D19B4863
:101130000838006802E099482C30006820210A0332
:1011400092FAA2F2B2FA82F2114301F01F020121D7
:10115000914008400028D8D1207800F002000228F1
:1011600045D18E48006800F00C0004280AD08B4856
:10117000006800F00C000C283BD18848006800F49F
:101180008030A8BB2020022191FAA1F1B1FA81F1AF
:1011900008430121B1EB601F03D180480838006883
:1011A00002E07E482C3000682021022292FAA2F24E
:1011B000B2FA82F2114301F01F020121914008406E
:1011C00020B1E068012801D001202EE77348001FFC
:1011D000006820F4F8504FF4F85292FAA2F2B2FAF2
:1011E00082F22169914008436C49091F08607DE043
:1011F000FFE7E068F0B3012090FAA0F1B1FA81F1C5
:10120000674A42F82100FFF7C5FA054606E0FFF7F6
:10121000C1FA401B022801D9032006E72020022141
:1012200091FAA1F1B1FA81F108430121B1EB601FFC
:1012300003D15A480838006802E058482C3000684A
:101240002021022292FAA2F2B2FA82F2114301F0B4
:101250001F020121914008400028D8D04F48001FAC
:10126000006820F4F8504FF4F85292FAA2F2B2FA61
:1012700082F200E006E02169914008434749091FD6
:10128000086033E00020012191FAA1F1B1FA81F167
:10129000434A42F82100FFF77DFA054606E0FFF7D2
:1012A00079FA401B022801D90320BEE62020022142
:1012B00091FAA1F1B1FA81F108430121B1EB601F6C
:1012C00003D136480838006802E034482C30006802
:1012D0002021022292FAA2F2B2FA82F2114301F024
:1012E0001F020121914008400028D8D1207800F049
:1012F0001000102873D12948006800F00C00002865
:101300006ED12020010191FAA1F1B1FA81F10843D7
:101310000121B1EB601F03D120480838006802E0CA
:101320001E482C30006820210A0192FAA2F2B2FA7B
:1013300082F2114301F01F0201219140084018B1CF
:10134000A06908B9012070E61449091F206A0968DC
:1013500001F46041884225D9206A01F04FFC08B1B0
:10136000012062E60D48001F006820F46040216AF9
:1013700008430A49091F08600846006820F07F40BA
:101380004FF07F4292FAA2F2B2FA82F2E169914002
:1013900008430249091F086023E0000008380240A2
:1013A00000004742FC48006820F46040216A08437E
:1013B000F94908600846006820F07F404FF07F42FE
:1013C00092FAA2F2B2FA82F2E16991400843F2493C
:1013D0000860206A01F012FC18B1012025E6A5E0A2
:1013E0001FE04FF4604191FAA1F1B1FA81F1206A56
:1013F000C840401C01218140C803E749091D096814
:1014000001F0F001F02292FAA2F2B2FA82F2D14097
:10141000E24A515CC840E24908600F20FFF712FA27
:1014200084E0A069F0B30120010291FAA1F1B1FAC0
:1014300081F1DC4A42F82100FFF7ACF9054606E0ED
:10144000FFF7A8F9401B022801D90320EDE5202071
:10145000010191FAA1F1B1FA81F108430121B1EB47
:10146000601F03D1CC48001F006802E0CA4830303A
:10147000006820210A0192FAA2F2B2FA82F2114324
:1014800001F01F020121914008400028D8D0C24835
:10149000006820F46040216A0843BF49086008469C
:1014A000006800E00DE020F07F404FF07F4292FAAC
:1014B000A2F2B2FA82F2E16991400843B6490860AB
:1014C00034E000204FF4807191FAA1F1B1FA81F17A
:1014D000B44A42F82100FFF75DF9054606E0FFF740
:1014E00059F9401B022801D903209EE52020010163
:1014F00091FAA1F1B1FA81F108430121B1EB601F2A
:1015000003D1A548001F006802E0A34830300068FE
:1015100020210A0192FAA2F2B2FA82F2114301F0FA
:101520001F020121914008400028D8D1207800F006
:10153000080008286ED16069A8B3012090FAA0F1D4
:10154000B1FA81F1974A02EB8101C1F88006FFF7F9
:1015500021F9054606E0FFF71DF9401B022801D9D5
:10156000032062E54020022191FAA1F1B1FA81F154
:1015700008430121B1EB601F03D18748001F0068B9
:1015800002E08548303000684021022292FAA2F23F
:10159000B2FA82F2114301F01F020121914008408A
:1015A0000028D8D036E0FFE70021012090FAA0F013
:1015B000B0FA80F07B4A02EB8000C0F88016FFF79B
:1015C000E9F8054606E0FFF7E5F8401B022801D9D7
:1015D00003202AE54020022191FAA1F1B1FA81F11C
:1015E00008430121B1EB601F03D16B48001F006865
:1015F00002E06948303000684021022292FAA2F2EB
:10160000B2FA82F2114301F01F0201219140084019
:101610000028D8D1207800F00400042875D10026D5
:101620005D482030006800F0805080B900BF5A4803
:101630002030006840F0805057492031086008464B
:10164000006800F08050009000BF00BF012656489F
:10165000006800F48070B0B95348006840F48070AE
:1016600051490860FFF796F8054606E0FFF792F843
:10167000401B642801D90320D7E44B48006800F4DC
:1016800080700028F2D000BFA068012808D142482D
:101690003030006840F480703F49303108602DE000
:1016A000A06868B93C483030006820F480703A493E
:1016B000303108600846006820F4806008601DE052
:1016C000A06805280DD134483030006840F48060AF
:1016D0003149303108600846006840F48070086085
:1016E0000CE02D483030006820F480702A493031F9
:1016F00008600846006820F48060086000BFA068A9
:1017000070B3FFF747F8054609E06AE0FFF742F8D3
:10171000401B41F28831884201D9032085E44020F2
:10172000C10091FAA1F1B1FA81F108430121B1EBB5
:10173000601F03D11848001F006802E016483030CF
:1017400000684021CA0092FAA2F2B2FA82F2114372
:1017500001F01F020121914008400028D6D035E059
:10176000FFF718F8054608E0FFF714F8401B41F2B0
:101770008831884201D9032057E44020C10091FA02
:10178000A1F1B1FA81F108430121B1EB601F0DD144
:101790000148001F00680BE00438024021400008A7
:1017A0001C00002000004742007000406C480068A8
:1017B0004021CA0092FAA2F2B2FA82F2114301F079
:1017C0001F020121914008400028CDD1012E07D1F0
:1017D00063481038006820F0805061491039086073
:1017E00000BF606AF0B35E482C38006800F00C005F
:1017F0000C287AD0606A022879D100204FF08071DD
:1018000091FAA1F1B1FA81F1564A42F82100FEF7AE
:10181000C1FF054606E0FEF7BDFF401B022801D9C7
:10182000032002E42020010591FAA1F1B1FA81F12F
:1018300008430121B1EB601F03D1494834380068E7
:1018400001E04748006820210A0592FAA2F2B2FAA4
:1018500082F2114301F01F0201219140084000284B
:10186000D9D100E07AE0D4E90A010843216B0843AA
:101870003B492C39096821F47D01084338492C394A
:1018800008600120010691FAA1F1B1FA81F1354A0F
:1018900042F82100FEF77EFF054606E0FEF77AFFDC
:1018A000401B022801D9032009E42020010591FAF8
:1018B000A1F1B1FA81F108430121B1EB601F03D11D
:1018C00027483438006801E02548006820210A05CF
:1018D00092FAA2F2B2FA82F2114301F01F02012140
:1018E000914008400028D9D038E035E0FFE70021DA
:1018F0004FF0807090FAA0F0B0FA80F0194A42F8E8
:101900002010FEF747FF054606E0FEF743FF401BA9
:10191000022801D9032058E42020010591FAA1F101
:10192000B1FA81F108430121B1EB601F03D10C48EA
:101930003438006801E00A48006820210A0592FA5C
:10194000A2F2B2FA82F2114301F01F02012191408A
:1019500008400028D9D101E0012036E4002034E419
:10196000343802400000474202460023106800F16C
:10197000500303EB81031868704710B50023046817
:1019800004F1500303EB81031A6010BD10B5044647
:101990000CB9012010BD607F20B9002020772046BF
:1019A00000F04EF80220607700BFCA20216848622C
:1019B00053202168486200BF204601F08DF940B1F4
:1019C00000BFFF202168486200BF0420607701202B
:1019D000E0E720688068194908402168886021692B
:1019E0006068084361690843216889680843216881
:1019F00088602168E068086120680169208941EAFF
:101A00000040216808612068C06820F080002168DB
:101A1000C8602068006C20F4802021680864206879
:101A2000006CA16908432168086400BFFF20216899
:101A3000486200BF012060770020ABE7BFFF8FFF47
:101A400010B590B004461D492068884233D100BFCC
:101A50001B48006840F0805019490860084600683B
:101A600000F08050009000BF00BFFEF75FFF042031
:101A7000039000200C900120059003A8FFF796FA30
:101A8000012001900004029001A8FEF75BFF0120F5
:101A9000810591FAA1F1B1FA81F10A4A02EB8101C3
:101AA000C1F88006002202210320FEF7EDFE03208C
:101AB000FEF7DDFE00BF10B010BD000000280040A2
:101AC00024380240000047422DE9F04104460D460B
:101AD0001646002700BF207F012802D10220BDE862
:101AE000F0810120207700BF022060774EB968782E
:101AF00000F01000102804D1687800F0EF000A30E0
:101B0000687086B9E87801F0DAF80304687801F0C3
:101B1000D6F843EA0023A87801F0D1F803432878E7
:101B200043EA403711E0687801F0BEF80746A8782C
:101B300001F0BAF80746E8780004697840EA012025
:101B4000A9780843297840EA413700BFCA202168B4
:101B5000486253202168486200BF204601F0BCF86B
:101B600060B100BFFF202168486200BF0420607799
:101B700000BF0020207700BF0120B0E713483840A5
:101B8000216848602068C06820F080002168C86033
:101B9000204600F0B3F860B100BFFF202168486222
:101BA00000BF0420607700BF0020207700BF012025
:101BB00095E700BFFF202168486200BF01206077E1
:101BC00000BF0020207700BF00BF88E73FFFFF0075
:101BD0002DE9F04104460D461646002700BF207F40
:101BE000012802D10220BDE8F0810120207700BF4A
:101BF00002206077CEB92068806800F0400000B114
:101C000002E00020E87000BF287801F058F80304D3
:101C1000687801F054F843EA0023A87801F04FF8FF
:101C20000343E87843EA004716E02068806800F044
:101C3000400020B1287801F037F8074602E0002084
:101C4000E87000BF28780004697840EA0120A9788C
:101C50000843E97840EA014700BFCA20216848628A
:101C600053202168486200BF204601F035F860B17A
:101C700000BFFF202168486200BF0420607700BFDA
:101C80000020207700BF0120ADE71B4838402168C5
:101C900008602068806820F4802021688860D5E989
:101CA0000101084321688968084321688860206829
:101CB000C06820F080002168C860204600F01EF84F
:101CC00060B100BFFF202168486200BF0420607738
:101CD00000BF0020207700BF012084E700BFFF2065
:101CE0002168486200BF0120607700BF0020207794
:101CF00000BF00BF77E700007F7F7F0070B504461C
:101D000000252068C06820F0A0002168C860FEF7A8
:101D100041FD054607E0FEF73DFD401BB0F57A7F2B
:101D200001D9032070BD2068C06800F020000028A1
:101D3000F1D00020F6E7F8B504460E4615461F46DA
:101D400094F85100012874D106B10DB90120F8BDF5
:101D500000BF94F85000012801D10220F7E70120CC
:101D600084F8500000BF122084F851000020606504
:101D70002663A586E586E064A064A063A087E0876B
:101D8000A06AB0F5005F0DD100BF2068006820F4A4
:101D90000050216808602068006840F40050216805
:101DA000086000BFA068B0F5004F05D1206800684A
:101DB00040F48040216808602068006800F040001E
:101DC000402805D02068006840F040002168086085
:101DD000E06878BB606810B1E08E012808D1216B03
:101DE000481C206308782168C860E08E401EE086A9
:101DF00011E03B4600220221204601F071FB08B1B0
:101E00000320A4E7216B481C206308782168C86080
:101E1000E08E401EE086E08E0028EADCA06AB0F585
:101E2000005F38D12068006840F480502168086065
:101E300031E05EE0FFE7606810B1E08E012809D173
:101E4000206B00882168C860206B801C2063E08EB6
:101E5000401EE08612E03B4600220221204601F0AF
:101E60003FFB08B1032072E7206B00882168C8603F
:101E7000206B801C2063E08E401EE086E08E0028F0
:101E8000E9DCA06AB0F5005F05D12068006840F485
:101E90008050216808603B4600220221204601F064
:101EA0001FFB28B1606D40F02000606503204EE705
:101EB0003B4601228021204601F012FB28B1606DD3
:101EC00040F020006065032041E7A06840B900BFF2
:101ED0002068C068009020688068009000BF00BF44
:101EE000012084F8510000BF002084F8500000BF9A
:101EF0002DE702202BE72DE9F84304460E4617464E
:101F00001D46DDF820800020009094F85100012843
:101F100003D094F85100222876D10EB107B115B93B
:101F20000120BDE8F88300BF94F85000012801D1DA
:101F30000220F6E7012084F8500000BF94F8510019
:101F4000012802D1322084F8510000206065A76387
:101F5000A587E5872663A586E586A064E064A06A78
:101F6000B0F5005F0DD100BF2068006820F400507C
:101F7000216808602068006840F40050216808600B
:101F800000BF2068006800F04000402805D02068AD
:101F9000006840F0400021680860E068B0F5006F1C
:101FA00075D1606830B16068B0F5827F0CD1E08E89
:101FB000012809D1206B00882168C860206B801C33
:101FC0002063E08E401EE086E08EF0B9A06AB0F596
:101FD000005F05D12068006840F4805021680860E7
:101FE000434600220121204601F07AFA08B103207D
:101FF00097E72068C068A16B0880A06B801CA06375
:10200000E08F401EE087C7E019E131E0434600223F
:102010000221204601F064FA08B1032081E7206B19
:1020200000882168C860206B801C2063E08E401E01
:10203000E086E08E48B9A06AB0F5005F05D120685F
:10204000006840F480502168086043460022012166
:10205000204601F045FA08B1032062E72068C06815
:10206000A16B0880A06B801CA063E08F401EE087FE
:10207000E08E0028CADC60680028C4D143460022F4
:102080000121204601F02CFA10B1032049E70AE0B3
:102090002068C068A16B0880A06B801CA063E08FE3
:1020A000401EE08778E0606830B16068B0F5827FFC
:1020B0000BD1E08E012808D1216B481C20630878E1
:1020C0002168C860E08E401EE086E08ED0B9A06A2C
:1020D000B0F5005F05D12068006840F480502168A9
:1020E0000860434600220121204601F0F9F908B1B9
:1020F000032016E72068C068A16B0870E08F401EBF
:10210000E08749E030E0434600220221204601F00A
:10211000E7F908B1032004E7216B481C2063087825
:102120002168C860E08E401EE086E08E48B9A06A53
:10213000B0F5005F05D12068006840F48050216848
:102140000860434600220121204601F0C9F908B188
:102150000320E6E62068C068C1B2A26B501CA063F1
:102160001170E08F401EE087E08E0028CBDC6068B5
:1021700090B9434600220121204601F0B1F908B18F
:102180000320CEE62068C068C1B2A26B501CA063D9
:102190001170E08F401EE087A06AB0F5005F12D199
:1021A000434600220121204601F09AF928B1606DD2
:1021B00040F0020060650320B3E62068C06880B28A
:1021C0000090BDF80000434601228021204601F026
:1021D00087F928B1606D40F0200060650320A0E61B
:1021E000012084F85100A06AB0F5005F21D1206879
:1021F0008068C0F30010E0B1606D40F002006065DF
:10220000A06AB0F5005F0DD100BF2068006820F41F
:102210000050216808602068006840F40050216880
:10222000086000BF00BF002084F8500000BF0120FC
:1022300077E600BF002084F8500000BF71E602205E
:102240006FE6042808D14FF0E021096941F004014C
:102250004FF0E022116107E04FF0E021096921F021
:1022600004014FF0E0221161704710B5FEF7C8FA83
:1022700001F0C2F910BD70B504462546681EB0F1E4
:10228000807F01D301200FE0681E4FF0E0214861FC
:102290000F214FF0FF3000F079FC00204FF0E021DB
:1022A000886107200861002070BD10B5FFF7DDFFD1
:1022B00010BD704710B5044620680069C0F34000A7
:1022C000D8B12068C068C0F34000B0B16FF0020020
:1022D00021680861012020752068806900F00300F2
:1022E00018B12046FFF7E5FF05E0204600F08BF827
:1022F000204600F089F80020207520680069C0F3AE
:102300008000D8B12068C068C0F38000B0B16FF021
:10231000040021680861022020752068806900F4AB
:10232000407018B12046FFF7C4FF05E0204600F0DA
:102330006AF8204600F068F80020207520680069DF
:10234000C0F3C000D8B12068C068C0F3C000B0B10D
:102350006FF0080021680861042020752068C069BA
:1023600000F0030018B12046FFF7A3FF05E0204668
:1023700000F049F8204600F047F80020207520685A
:102380000069C0F30010D8B12068C068C0F3001025
:10239000B0B16FF010002168086108202075206836
:1023A000C06900F4407018B12046FFF782FF05E0D5
:1023B000204600F028F8204600F026F8002020757E
:1023C0002068006900F0010058B12068C06800F082
:1023D000010030B16FF0010021680861204600F073
:1023E00015F820680069C0F3801058B12068C068F3
:1023F000C0F3801030B16FF04000216808612046C2
:1024000000F012F810BD70477047000010B5044688
:102410002068B0F1804F04D10248006808B100F094
:102420006FFD10BDE415002070477047F8B50446F5
:10243000002500262068006800F001052068C068BB
:1024400000F4807625B11EB1E06B40F00100E0633E
:1024500020680068C0F340052068406900F001066C
:1024600025B11EB1E06B40F00400E0632068006815
:10247000C0F3800525B11EB1E06B40F00200E063BF
:1024800020680068C0F3C00525B11EB1E06B40F0C4
:102490000800E06320680068C0F340152068C06849
:1024A00000F020061DB116B1204601F087F9206822
:1024B0000068C0F3C0152068C06800F080061DB138
:1024C00016B1204601F068FB20680068C0F3801553
:1024D0002068C06800F040061DB116B1204601F02A
:1024E00055F9E06B70B100BF20680068009020686B
:1024F0004068009000BF00BF012084F839002046EA
:10250000FFF793FFF8BD10B504460CB9012010BDCC
:10251000A06900B100E000BF94F8390028B900209C
:1025200084F83800204600F025F8022084F83900AD
:102530002068C06820F400502168C860204601F07F
:102540007FF92068006920F49040216808612068C4
:10255000406920F02A00216848612068C06840F482
:1025600000502168C8600020E063012084F8390031
:102570000020CCE710B586B0044638492068884270
:1025800032D100BF3648006840F00100344908608D
:102590000846006800F00100009000BF00BF00BFC7
:1025A000081D006840F48040091D08600846006866
:1025B00000F48040009000BF00BF4FF4C060019065
:1025C0000220029001200390022004900720059031
:1025D00001A92448FDF7F0FF002201212520FEF784
:1025E00053F92520FEF743F91F492068884233D16B
:1025F00000BF1B48006840F0010019490860084608
:10260000006800F00100009000BF00BF00BF144848
:102610000830006840F4003011490831086008466D
:10262000006800F40030009000BF00BF0C20019053
:1026300002200290012003900220049007200590C0
:1026400001A90848FDF7B8FF012211462620FEF730
:102650001BF92620FEF70BF906B010BD003801402B
:102660001C380240000002400044004030B50346E0
:10267000002493F83940012C01D0122C37D101B13C
:102680000AB9012030BD00BF93F83800012801D1FC
:102690000220F7E7012083F8380000BF99629A858D
:1026A000DA850020D86393F83900122803D132204C
:1026B00083F8390002E0222083F8390000BF0020AF
:1026C00083F8380000BF1868C06840F480701D6847
:1026D000E8601868406940F001001D68686118688A
:1026E000C06840F020001D68E8600020CAE70220B2
:1026F000C8E70000854A016891422BD184490988C6
:1027000001F4004100297AD18149098801F480410E
:1027100000293DD07F4909780A291CD07C490988C5
:102720004BF6FF7211407A4A11807A490978128873
:10273000C2F30D02784B995475490988491C744AB3
:10274000118011460988C1F30D01B1F5806F56DB88
:102750000021118053E06F4909786D4A1288C2F355
:102760000D026D4B99546A490988491C684A1180C9
:1027700011460988C1F30D01B1F5806F01DB00211D
:1027800011806349098841F40041614A118036E0B3
:10279000604909780D291CD15E4909785C4A128884
:1027A000C2F30D025C4B995459490988491C584A97
:1027B000118011460988C1F30D01B1F5806F01DB6D
:1027C000002111805249098841F48041504A11800A
:1027D00015E0504909784E4A1288C2F30D024E4B5B
:1027E00099544B490988491C494A11801146098866
:1027F000C1F30D01B1F5806F01DB00211180474A63
:10280000016891422AD14649098801F40041002912
:102810007AD14349098801F48041E9B341490978F3
:102820000A291CD03E4909884BF6FF7211403C4AE8
:1028300011803C4909781288C2F30D023A4B995431
:1028400037490988491C364A118011460988C1F365
:102850000D01B1F5806F57DB0021118054E0314943
:1028600009782F4A1288C2F30D022F4B99542C4934
:102870000988491C2A4A118011460988C1F30D01B3
:10288000B1F5806F01DB002111802549098841F4F1
:102890000041234A118037E0FFE7224909780D29DA
:1028A0001CD1204909781E4A1288C2F30D021E4B22
:1028B00099541B490988491C194A118011460988F5
:1028C000C1F30D01B1F5806F01DB002111801449C6
:1028D000098841F48041124A118015E011490978B4
:1028E0000F4A1288C2F30D020F4B99540C49098804
:1028F000491C0B4A118011460988C1F30D01B1F53D
:10290000806F01DB0021118070470000003801401A
:102910001000002014000020980000200044004017
:10292000120000201500002098040020704700BF0E
:10293000FEE7000010B50248FDF75AFF10BD000089
:102940008C00002070B504460D4604480449086018
:10295000084644608560FDF723FF70BD00300040ED
:102960008C00002000B587B000BF5448006840F0DC
:102970000100524908600846006800F0010001901B
:1029800000BF00BF00BF0846006840F002000860BA
:102990000846006800F00200019000BF00BF00BFC1
:1029A0000846006840F0040008600846006800F02F
:1029B0000400019000BF00BF00BF0846006840F05F
:1029C000080008600846006800F00800019000BF99
:1029D00000BF00BF0846006840F0100008600846CD
:1029E000006800F01000019000BF00BF00BF084663
:1029F000006840F0200008600846006800F02000F1
:102A0000019000BF00BF49F6FF70029003200390C1
:102A100000200490059002A92948FDF7CDFD4FF64E
:102A2000FF70029002A92748FDF7C6FD4FF6FF7020
:102A3000029002A92448FDF7BFFD4FF6FF700290F7
:102A400002A92248FDF7B8FD4FF6FF70029002A9D7
:102A50001F48FDF7B1FD0320029002A91D48FDF7B4
:102A6000ABFDC020029001200390022004900020C2
:102A7000059002A91348FDF79FFD1048006820F05B
:102A800001000E4908600846006820F00200086056
:102A90000846006820F0040008600846006820F03E
:102AA000080008600846006820F01000086008462A
:102AB000006820F02000086007B000BD1C3802400C
:102AC000000002400004024000080240000C0240E6
:102AD000001002400014024000BFFEE700B587B0BE
:102AE00000BF1048006840F001000E490860084629
:102AF000006800F00100019000BF00BF881502903F
:102B000001200390002004900320059002A90648AC
:102B1000FDF752FD012211020348FDF735FE07B013
:102B200000BD00001C3802400000024000B587B024
:102B300000BF0F48006840F001000D4908600846DA
:102B4000006800F00100019000BF00BF012002906A
:102B50000390002004900320059002A90548FDF78A
:102B60002BFD002201210348FDF70EFE07B000BD3A
:102B70001C38024000000240704700000248006814
:102B8000C0F30220704700000CED00E010B50028F3
:102B900007DA0A07140E054A00F00F031B1FD4546E
:102BA00003E00A07130E024A135410BD18ED00E0AB
:102BB00000E400E07047000010B5FFF78FFF00F061
:102BC000B3F9FFF7B3FF01F0A9F801221102094898
:102BD000FDF7DAFD002208210748FDF7D5FD0022A8
:102BE00001210448FDF7D0FD012211030148FDF742
:102BF000CBFD10BD000002400004024018B50246A3
:102C0000002300212548006800F0F00050BB234855
:102C10001C30006800F0805020B12148006800F4AA
:102C2000C05318E000BF1D481C30006840F08050C1
:102C30001A4C1C3420602046006800F08050009040
:102C400000BF00BF1648006800F4C053204600686B
:102C500020F080502060B3F5C05F03D1B2F5404F43
:102C600000D1012100BF012905D10E48006840F0C4
:102C700004000C4C20600B48006820F00100084361
:102C8000084C206000BF2046006800F00100884228
:102C900001D0012018BD0020FCE7000008380240E8
:102CA00000700040003C0240014600BF080900EBF4
:102CB0008000420001F00F001044C0B2704701468E
:102CC000002203E0521CA1F10A00C1B20A29F9DA7C
:102CD000100741EA1060704770B50446002520686F
:102CE000C06800F04000A0B9681E2168C860FDF708
:102CF00051FD054607E0FDF74DFD401BB0F57A7F1D
:102D000001D9032070BD2068C06800F04000002891
:102D1000F1D00020F6E7000010B51648164908600B
:102D2000002048607F2114488160FF21C16000219C
:102D3000016141618161FEF729FE08B1022010BDE9
:102D400000210D48FEF710FE45F2500188420FD0D9
:102D500001221146122000F011F8002211460C2029
:102D600000F04EF845F2500200210348FEF705FE40
:102D70000020E4E7002800406C000020F8B504467D
:102D80000D4616468DF802608DF801508DF803400F
:102D9000012D01D0022D04D105F10C00C5B2601E39
:102DA000C4B2691C01EB4101052291FBF2F1022240
:102DB00002FB0562114421442046E21704EB9272A3
:102DC00001EBA201642294FBF2F2891A4FF4C8725B
:102DD00094FBF2F21144491C072291FBF2F302FB2F
:102DE0001311CFB20FB9072000E038468DF800006C
:102DF000002269460148FEF767FEF8BD6C0000201E
:102E0000FEB504460D4616468DF800408DF801507B
:102E10008DF802600C2C01DA002000E040208DF8D3
:102E20000300002001900290002269460148FEF74D
:102E3000CFFEFEBD6C00002010B52A480068B0F53A
:102E4000987F11DB2848006800B110BD002025499B
:102E5000086026480068401C234908602348006831
:102E6000C0F101002149086020480068E0B920480D
:102E7000008820491B4A126841F82200194800685E
:102E8000C0F59870322101EBC003002211461A48A8
:102E9000FDF730FB00211848FDF742FB11480068A0
:102EA000401C104908601BE01148008813490D4A76
:102EB000126841F822000B480068C0F59870322172
:102EC00001EBC003002211460B48FDF713FB002164
:102ED0000948FDF725FB03480068401C01490860CC
:102EE00000BFB2E74000002048000020440000205E
:102EF00054000020480C0020E41500200811002098
:102F000010B508480068012805DA0A20054908605C
:102F1000FFF792FF04E003480068401E0149086083
:102F200010BD00005000002000B587B000BF104861
:102F3000006840F002000E4908600846006800F092
:102F40000200019000BF00BF082002900120039002
:102F5000002004900320059002A90648FDF72CFBF1
:102F6000002208210348FDF70FFC07B000BD000058
:102F70001C3802400004024010B5002211461046E1
:102F800000F0A4FF1948807900F0080040B101204A
:102F900000F076FF022000F081FF082000F070FFB3
:102FA0001248807800F0200008B1202010BD0F48A2
:102FB000807800F0100008B11020F7E70B48807807
:102FC00000F0080010B1022000F068FF0748807888
:102FD00000F0020008B10220E8E70448807800F021
:102FE000010008B10120E1E70020DFE7A41C002078
:102FF0002DE9F04106468846002442F2107519E09A
:1030000000F0B4F8442000F0CFF800F0B9F804461E
:10301000FF2C07D11EB14146304600F0B6F800F053
:103020009BF809E000F098F86D1E052700E07F1E70
:10303000002FFCD1002DE3D100BF1DB900E000E05E
:10304000FDE700BFFF2C02D1012002490870204695
:10305000BDE8F0816800002010B500210846FFF7A8
:10306000C7FF10BD2DE9F04180460C4615461E46AF
:103070000A275CB105E0FFF7EFFF781EC7B207B97A
:1030800003E00A4800780028F5D000BF00F06EF891
:10309000404600F089F83146284600F076F800F006
:1030A0005BF8002001490870BDE8F081680000204D
:1030B00070B505460E460A2405E0FFF7CDFF601EF9
:1030C000C4B204B903E0084800780028F5D000BF76
:1030D00000F04CF83146284600F06CF800F03CF85F
:1030E00000200149087070BD680000202DE9F04102
:1030F00006460F4614461D4639463046FFF7D8FFB0
:1031000029462046FFF774FFBDE8F0812DE9F04124
:1031100080460C4615461E460A275CB105E0FFF7BF
:103120009BFF781EC7B207B903E00A480078002861
:10313000F5D000BF00F01AF8404600F035F83146EF
:10314000284600F037F800F007F800200149087021
:10315000BDE8F0816800002010B50122D1030248CB
:10316000FDF712FB10BD00000000024010B5002268
:103170004FF400410148FDF707FB10BD000002407D
:1031800010B5FF2000F01EF810BD70B505460C46C6
:1031900004E0FF2000F016F804F8010B281EA5F14A
:1031A00001018DB2F5D170BD10B50446204600F086
:1031B00009F810BD70B504460D462946204600F0BA
:1031C00013F870BD01B582B0002001906420012386
:1031D00001AA02A900900348FEF78DFE9DF80400A5
:1031E0000EBD0000481B002070B504460D46642348
:1031F000224629460148FEF79EFD70BD481B00206F
:1032000010B50446204600F09FF810BDF8B5002622
:10321000464C4748007800B9F8BDFFF7ADFE0546BB
:10322000202D02D100F022F97EE0022D02D100F023
:10323000EFF879E0102D44D13E480078401C3E491B
:103240000978401AC6B23D48007860B93949012072
:1032500000F06AFE611C3748007800F065FE3548D2
:10326000007820700AE0344800782118304600F0D9
:103270005BFE3148007830442F4908700020304907
:1032800008702D4908702D490870FF200023112275
:1032900002210090122000F051FE00212948007800
:1032A00000F002F9204600F09BFE10B11F48FFF726
:1032B000A7FFFF212046FDF703F8012020490870F1
:1032C00032E0012D30D11D48007848B92146012057
:1032D00000F02AFE2078174908700020164908706F
:1032E00014480078401C14490978401AC6B23E2E92
:1032F0001AD31248007820B9611C3D2000F014FE5A
:1033000005E00D48007821183E2000F00DFE0A4827
:1033100000783E30084908700848007820B907480E
:103320000078401C0549087000BF75E7A01B00200D
:103330005A0000205C0000205E0000205D0000209C
:1033400059000020560000202DE9F04107460025D5
:103350006E1E00241DE004EB440000EB84102B499A
:1033600011F8200000B9264604EB440000EB84105D
:10337000264901EB8000406805EB450101EB851112
:10338000224A02EB81014968884200D22546601C2E
:1033900044B2022CDFDB002E00DA2E4606EB46019B
:1033A00001EB8611194A02EB810101F1080040F29C
:1033B00001123946FCF70DFF012006EB460101EB37
:1033C0008611124A02F8210005EB450000EB85103A
:1033D000114601EB8000406806EB460101EB8611C7
:1033E00002EB8101486005EB450000EB85101146BA
:1033F00001EB80004068401C05EB450101EB8511A5
:1034000002EB81014860BDE8F08100003016002029
:1034100010B5124800783E2815D9114801683E20A1
:1034200000F0D4FD0E4800683E300D4908600D489C
:1034300000783E300B4908700B4800780978401A34
:103440000649087009E005480078002805DD0448B1
:1034500001680248007800F0B9FD10BD610000204D
:1034600064000020620000205700002008B5002002
:10347000094908700949087009490870FF200023AC
:10348000112202210090122000F058FD0021054871
:10349000007800F009F808BD6200002061000020FB
:1034A00058000020560000207CB505460C4600223E
:1034B0001146104600F00AFD022000F0EFFC082043
:1034C000032100232246CDE900101946284600F0CA
:1034D0005FFD0120014908707CBD000060000020F4
:1034E0002DE9F04104460E4617461D464FF00008F0
:1034F000FDF750F98046002F3ED132E0681C78B3CA
:103500002DB1FDF747F9A0EB0800A84229D92068A2
:10351000406820F0E000216848602068006820F0E2
:10352000400021680860A06AB0F5005F0DD100BFBF
:103530002068006820F40050216808602068006856
:1035400040F400502168086000BF012084F8510059
:1035500000BF002084F8500000BF0320BDE8F081C8
:10356000FFE7206880683040B04201D1012000E0D0
:1035700000200028C2D03BE030E0681C70B32DB1C1
:10358000FDF708F9A0EB0800A84227D92068406899
:1035900020F0E000216848602068006820F04000CA
:1035A00021680860A06AB0F5005F0DD100BF2068F7
:1035B000006820F40050216808602068006840F42A
:1035C00000502168086000BF012084F8510000BF4E
:1035D000002084F8500000BF0320BFE72068806807
:1035E0003040B04201D1012000E000200028C4D1C9
:1035F0000020B3E77047000010B5FDF7CBF8044694
:1036000015480068844211D913480068201AB0F5A3
:103610007A7F0BD311480068401C104908600E489F
:10362000006800F57A700C49086013E00A480068E9
:10363000C0F1FF302044401CB0F57A7F0AD3074820
:103640000068401C054908600348006800F57A706E
:103650000149086010BD000008000020040000209F
:1036600030B593B005460024FDF7C8FB1020069046
:1036700001200C9000200D900E9501200F9006A8BF
:10368000FDF794FC04460CB100BFFEE70220069053
:103690000120099010200A9001200F9006A8FDF744
:1036A00085FC04460CB100BFFEE700BF1648006869
:1036B00040F08050144908600846006800F08050CF
:1036C000009000BF00BF1148006820F4C05040F4D3
:1036D00000600E49086000BF0C484068C0F300104D
:1036E0000028F9D10F20019000200290039004904F
:1036F0000590012101A8FDF70DFA04460CB100BFA9
:10370000FEE713B030BD00002438024000700040D6
:1037100010B5FEF7CAFD10BD1448006840F4807073
:1037200012490860114808300068114908400F49E3
:10373000083108600D4800680E4908400B490860D0
:103740000846006820F480200860084808300068B7
:1037500020F47D000549083108600020091D08603B
:103760004FF00060044908607047000000380240D4
:103770000CC0FF88FEFFFEEE08ED00E010B5024829
:10378000FEF798FD10BD0000F815002010B50446A6
:103790002068C06820F040002168C86094F83900B3
:1037A000322803D1222084F8390002E0012084F875
:1037B00039002046FFF7BAF8002010BD70B5044666
:1037C000002694F83960222E01D0322E35D1A0681F
:1037D000B0F5805F13D1A56A206940B920684068C0
:1037E000C0F308002880A06A801CA06219E020684D
:1037F0004068C0B22880A06A401CA06211E0206925
:1038000038B920684068C1B2A26A501CA062117029
:1038100007E02068406800F07F01A26A501CA062A7
:103820001170E08D401E80B2E08520B92046FEF781
:1038300061FF002070BD0020FCE70220FAE70000D5
:103840002DE9F041044600252068006920F440502D
:10385000E1680843216808612169A068084361693B
:103860000843E16940EA01052068C06849F20C613B
:10387000884328432168C8602068406920F440706C
:10388000A169084321684861E069B0F5004F7CD127
:10389000C049206888425DD1FDF718FB00EBC001EC
:1038A00001EB001061684900B0FBF1F06421B0FB4E
:1038B000F1F00601FDF70AFB00EBC00101EB00107F
:1038C00061684900B0FBF1F7FDF700FB00EBC001B8
:1038D00001EB001061684900B0FBF1F06421B0FB1E
:1038E000F1F000EBC00101EB0010A7EB80003221EA
:1038F00001EBC0006421B0FBF1F000F0F80006EB32
:103900004006FDF7E3FA00EBC00101EB001061682F
:103910004900B0FBF1F7FDF7D9FA00EBC00101EB6C
:10392000001061684900B0FBF1F06421B0FBF1F0D8
:1039300000EBC00101EB0010A7EB8000322101EB8E
:10394000C0006421B0FBF1F000F0070030442168B2
:1039500088601CE1FDF7A4FA00EBC00101EB001048
:1039600061684900B0FBF1F06421B0FBF1F00601A1
:10397000FDF796FA00EBC00101EB00106168490009
:10398000B0FBF1F7FDF78CFA00E043E000EBC0017B
:1039900001EB001061684900B0FBF1F06421B0FB5D
:1039A000F1F000EBC00101EB0010A7EB8000322129
:1039B00001EBC0006421B0FBF1F000F0F80006EB71
:1039C0004006FDF76DFA00EBC00101EB00106168E5
:1039D0004900B0FBF1F7FDF763FA00EBC00101EB22
:1039E000001061684900B0FBF1F06421B0FBF1F018
:1039F00000EBC00101EB0010A7EB8000322101EBCE
:103A0000C0006421B0FBF1F000F0070030442168F1
:103A10008860BCE05F49206888425CD1FDF756FAB7
:103A200000EBC00101EB001061688900B0FBF1F60A
:103A3000FDF74CFA00EBC00101EB00106168890052
:103A4000B0FBF1F06421B0FBF1F000EBC00101EB41
:103A50000010A6EB8000322101EB00106421B0FBC6
:103A6000F1F000F0F006FDF731FA00EBC00101EBD8
:103A7000001061688900B0FBF1F06421B0FBF1F047
:103A800006EB0016FDF722FA00EBC00101EB001077
:103A900061688900B0FBF1F7FDF718FA00EBC0018F
:103AA00001EB001061688900B0FBF1F06421B0FB0C
:103AB000F1F000EBC00101EB0010A7EB8000322118
:103AC00001EB00106421B0FBF1F000F00F00304476
:103AD000216888605BE0FDF7E3F900EBC00101EBD2
:103AE000001061688900B0FBF1F6FDF7D9F900EB31
:103AF000C00101EB001061688900B0FBF1F06421A6
:103B0000B0FBF1F000EBC00101EB0010A6EB800070
:103B1000322101EB00106421B0FBF1F000F0F0065F
:103B2000FDF7BEF900EBC00101EB001061688900F0
:103B3000B0FBF1F06421B0FBF1F006EB0016FDF7ED
:103B4000AFF900EBC00101EB001061688900B0FB28
:103B5000F1F7FDF7A5F900EBC00101EB001061687A
:103B60008900B0FBF1F06421B0FBF1F000EBC00183
:103B700001EB0010A7EB8000322101EB0010642163
:103B8000B0FBF1F000F00F00304421688860BDE820
:103B9000F08100000038014010B50146002391F883
:103BA0003930122B01D0322B2CD18868B0F5805FD0
:103BB0000FD10A6A1088C0F308000C6860600869B9
:103BC00018B9086A801C086209E0086A401C08628B
:103BD00005E00C6A601C086220780C686060C88C84
:103BE000401E80B2C88458B90868C06820F08000C0
:103BF0000C68E0600868C06840F040000C68E06055
:103C0000002010BD0220FCE710B50D48FEF70EFCA9
:103C10000B48C08D28B90B48094988620120C88526
:103C20008885074890F83900122804D132200449C9
:103C300081F8390003E02220014981F8390010BDE4
:103C4000980800201400002010B50D48FEF7EEFB88
:103C50000B48C08D28B90B48094988620120C885E6
:103C60008885074890F83900122804D13220044989
:103C700081F8390003E02220014981F8390010BDA4
:103C8000D80800201500002010B504460C480D4946
:103C900008600846446000218160C1600161816163
:103CA0000C2141610021C161FEF72DFC08B100BF6C
:103CB000FEE7012204490348FEF7D8FC10BD0000CE
:103CC00000380140980800201400002010B5044678
:103CD0000D480E4908600846446000218160C160BB
:103CE000016181610C21416100210948C1610748DE
:103CF000FEF709FC08B100BFFEE7012205490348B1
:103D0000FEF7B4FC10BD000000440040D8080020BD
:103D1000980800201500002000BFFEE700B587B01E
:103D200000BF1048006840F001000E4908600846D6
:103D3000006800F00100019000BF00BF88140290ED
:103D400001200390002004900320059002A906485A
:103D5000FCF732FC012211030348FCF715FD07B004
:103D600000BD00001C3802400000024000BF704748
:103D7000FCF74EFD4FF44040FFF772FC41F2620049
:103D8000FCF774FB40F6FF710620FEF7DBFDFEF743
:103D9000C3FFFEF7E7FDFEF70FFF4FF41650FFF7E6
:103DA00073FF4FF41650FFF791FF32210220FCF70A
:103DB00043FB00202E4908700846407820F0070099
:103DC00048700846407820F018004870084640784F
:103DD00020F0E00048700846807820F00F008870DE
:103DE0000846807820F0F000503088700020C870BD
:103DF000204848600020886001211D4801733A2155
:103E0000417364201A49A1F81500A1F81700A1F820
:103E100019004FF49670A1F81B00052048770A207E
:103E200088770F20C877142081F8200012481349A2
:103E300008606420C1F80D00C1F81100C1F8150038
:103E40004FF49670C1F819000520C1F81D000A2032
:103E5000C1F821000F20C1F825001420C1F8290065
:103E600005E0FEF767FD4FF47A70FCF709FBF8E711
:103E70002D0900200100018101000183CD090020EE
:103E800010B50446342004490870084644700220E6
:103E9000FFF70EF910BD0000B81C002010B5044655
:103EA000152008490870084644700346022210464F
:103EB000FFF71CF90348007803490870014840786F
:103EC000487010BDB81C0020A41C002070B5064628
:103ED0000C4615462020124908700846467084702A
:103EE000C570034608220420FFF700F90C4800784B
:103EF0000C4908700A4840784870094880788870F2
:103F00000748C078C87006480079087104484079AD
:103F100048710348807988710148C079C87170BDC3
:103F2000B81C0020A41C002070B504460D462B468A
:103F3000224600217720FFF795F870BD0FB4F8B541
:103F400006460C46112011490870084646708470D8
:103F50009DF82000C87009A80090042508E000988A
:103F600010F8041B0090C8B208494855681CC5B237
:103F7000201EA4F10101CCB2F1D1009003492846E2
:103F8000FFF796F8F8BC5DF814FB0000B81C0020A1
:103F90002DE9F04705460F4614461E46DDE908891F
:103FA0003220094908700846457087702012C87091
:103FB0000C710846467180F8068080F8079008204A
:103FC000FFF776F8BDE8F087B81C002070B504460E
:103FD0000D462B46224600216620FFF797F870BD5C
:103FE00030B5014600230C78012204E0885C1844B7
:103FF00083B2501C82B2601E9042F7DC0878801EAB
:104000000870501C0D5C885C05EB0020984201D1C3
:10401000012030BD0020FCE7030406080C10182026
:104020003000000000000000000102030406070841
:104030000900000000010203040000005C400008C9
:10404000000000206C00000030010008C84000089B
:104050006C000020BC2200004C01000800000000A1
:104060000000000000000000000000000000000050
:1040700000000000000000000048E8010A00000005
:104080000000000000000000000000000000000030
:104090000000000000000000000000000000000020
:1040A000000000000000000001000000000000000F
:1040B0000A002400010100000000000000000000D0
:0840C0000000000000000000F8
:04000005080000F5FA
:00000001FF
