:020000040800F2
:10500000582000203D520008D1A2000887A00008C7
:1050100031A200087B73000879BF0008000000007F
:10502000000000000000000000000000E5B50008DE
:105030007F730008000000000DA3000817B70008E8
:10504000575200085752000857520008575200089C
:10505000575200085752000857520008575200088C
:10506000575200085752000857520008575200087C
:10507000575200085752000857520008575200086C
:10508000575200085752000857520008575200085C
:10509000575200085752000857520008575200084C
:1050A00000000000575200085752000857520008ED
:1050B000DDB900085752000857520008575200083F
:1050C000575200085752000857520008575200081C
:1050D0005752000869BE0008A9BE000857520008D0
:1050E000057400085752000857520008575200082C
:1050F0005752000800F002F800F090F80AA090E87B
:10510000000C82448344AAF10107DA4501D100F082
:1051100085F8AFF2090EBAE80F0013F0010F18BFBF
:10512000FB1A43F001031847CC760000EC76000030
:10513000103A24BF78C878C1FAD8520724BF30C8C3
:1051400030C144BF04680C60704700000023002495
:1051500000250026103A28BF78C1FBD8520728BF87
:1051600030C148BF0B6070476E2900F0C4847029BD
:1051700000F06381662907F0F381652907F0F0816B
:10518000672907F0ED81612907F0EC8103681B0AAC
:1051900028BF41F08001692900F0D480642900F023
:1051A000D180752900F0CE806F2900F0AB85782979
:1051B00000F02F81E92900F04585E42900F04285BF
:1051C000F52900F03F85EF2900F0A885F82900F0C7
:1051D0002E810368DB0928BF41F08001632900F0BC
:1051E000C684732900F0CB84E32901F0C981F32937
:1051F00001F0CE81002070471FB501F0D5FB0400FF
:105200000020002107F096F9401C6060002000217A
:1052100007F07AF9E0601FBD10B510BD01F096FBF4
:105220001146FFF7E9FF06F0EFFE01F06FFC03B453
:10523000FFF7F2FF03BC06F0E4FE000009488047D8
:1052400009480047FEE7FEE7FEE7FEE7FEE7FEE768
:10525000FEE7FEE7FEE7FEE704480549054A064B80
:105260007047000021B70008F5500008581A0020C8
:1052700058200020581C0020581C002070470000B7
:105280001CB50C46064B7B4469460090204600F056
:105290004CFC04460020694600F05AFC20461CBD28
:1052A000C708000070B5044685690068C10601D5CD
:1052B000302600E02026C00707D070BDD4E90121C8
:1052C00030469047206A401C20626D1EF6D570BDA6
:1052D00070B5044685690078C00707D170BDD4E970
:1052E000012120209047206A401C20626D1EF6D5C7
:1052F00070BD70B50C460546012A05D02878800699
:1053000000D5EA69002302E0012305E05B1C93421B
:1053100002D2E05C0028F9D1A869E618C01AA86199
:10532000286A184428622846FFF7BCFF04E0D5E944
:10533000012114F8010B9047B442F8D32846FFF737
:10534000C7FF70BD2DE9F04106460024106875299D
:10535000314616A510D000F063FB002802DA404267
:1053600013A507E031688A0701D512A502E04907B5
:1053700004D511A5012401E000F05BFB00210A2205
:1053800006F1240709E0B0FBF2FCB0FBF2F302FBEC
:105390001C00303078541846491C0028F3D12346AD
:1053A0002A463046BDE8F04100F04CBB000000004A
:1053B0002D0000002B00000020000000F0B40D467E
:1053C0000188090502D5214C7C4402E01F4C7C4435
:1053D0000E34002100F1240608E002F00F07120944
:1053E000E75D42EA03721B097754491C52EA03073E
:1053F000F3D102780023120704D5702D06D009B12D
:10540000022311342246F0BC00F01CBB01231034EF
:10541000F8E770B504460D462146106800F009FB18
:10542000024629462046BDE870400023C6E7D21D4B
:1054300022F00703D3E90023C0E70368126843F0B2
:10544000200303600823C3610023B7E7297300002A
:105450002DE9F05F894604464FF0000ADFF874B189
:10546000FB44C0F820A02046E1688847002874D09B
:10547000252806D0D4E901219047206A401C2062EB
:10548000F1E700265F462046E16888472028054668
:1054900007DB312D05D2781910F8200C08B106432E
:1054A000F1E7B00701D526F00406C4F81CA00027D8
:1054B000C4F818A02A2D09D0284606F09BFD38B361
:1054C00004EB8708303DC8F8185019E059F8041B60
:1054D000204604EB87029161E1688847012F054669
:1054E00018D1E069002820DA26F020061DE0D8F85F
:1054F000180000EB800005EB40003038C8F81800B9
:105500002046E1688847054606F074FD0028EED184
:10551000012F0AD02E2D08D12046E16888477F1C34
:105520000546022F46F02006C4DBA069002803DAF6
:10553000404246F00106A061F00701D026F01006B7
:105540006C2D0BD0682D09D04C2D39D06A2D35D05B
:10555000742D35D07A2D33D016E038E0E1682F462F
:1055600020468847B842054609D16C2F26D04FF413
:105570008060E168064320468847054604E06C2FBA
:105580001AD04FF4807006430DB3A5F141001928DD
:1055900002D8203546F400664A4629462046266051
:1055A0004E46FFF7E1FD80B101280BD0F61D26F035
:1055B000070000F1080956E74020E4E78020D8E71B
:1055C0000020D6E706F104094DE7284652E7206A95
:1055D000BDE8F09FB97200000FB400B58DB010A9FE
:1055E000099000910B904FF0FF300A9000200C9032
:1055F000064878440690064878446A4607900F9912
:1056000009A800F0A9FB0DB05DF814FB83070000AA
:105610009B0700002DE9FF5F1D464FF0FF3B9146C1
:105620004FF000085F46D5E90146A96901987F1C43
:105630008847296A824688470028F6D1BAF1FF3F99
:105640000CD0002E24F4C06419DD600614D5BAF124
:105650002B0F09D0BAF12D0F0ED103E0584604B03C
:10566000BDE8F09F44F48064A96901987F1C8847D5
:10567000761E8246002E02DDBAF1300F03D0B9F15A
:10568000000F26D032E0A969761E01987F1C44F4F1
:1056900000748847002E824605DDBAF1780F06D0E7
:1056A000BAF1580F03D0B9F1000F10D01EE0B9F1D4
:1056B000000F02D0B9F1100F18D1A969761E019818
:1056C0007F1C24F4007488478246102002E00820E2
:1056D00000E00A20814609E0A96908FB0908761E56
:1056E00001987F1C44F4007488478246002E05DD33
:1056F0004946504600F01CFB0028EDDAE9690198A4
:105700008847A00502D46FF00100A8E7E00725D183
:10571000600613D5600502D5C8F1000000E04046E0
:1057200029680A1D2A600968220501D5087015E05C
:10573000220701D5088011E008600FE02868011DEC
:1057400029600068210502D580F8008006E0210765
:1057500002D5A0F8008001E0C0F8008038467EE75E
:1057600030B505460B462A4613F8014B12F8010BDB
:1057700008B1A042F8D01CB1002802D06D1CF1E79E
:10578000284630BD10B5431C02E010F8011B71B172
:105790008107FAD14FF0013202C88C1A8C4314EA07
:1057A000C211F9D0C01A0A0603D0C01E10BDC01A1B
:1057B00010BD0A0401D0801E10BD0902FCD0401E9D
:1057C00010BD032A40F2308010F0030C00F0158069
:1057D00011F8013BBCF1020F624498BF11F801CBF4
:1057E00000F8013B38BF11F8013BA2F1040298BF59
:1057F00000F801CB38BF00F8013B11F0030300F0C3
:105800002580083AC0F0088051F8043B083A51F866
:1058100004CBA0E80810F5E7121D5CBF51F8043B6B
:1058200040F8043BAFF30080D20724BF11F8013BDE
:1058300011F801CB48BF11F8012B24BF00F8013B40
:1058400000F801CB48BF00F8012B704710B5203A93
:10585000C0F00B80B1E81850203AA0E81850B1E829
:105860001850A0E81850BFF4F5AF5FEA027C24BFDF
:10587000B1E81850A0E8185044BF18C918C0BDE8D6
:1058800010405FEA827C24BF51F8043B40F8043B9F
:1058900008BF7047D20728BF31F8023B48BF11F854
:1058A000012B28BF20F8023B48BF00F8012B7047AE
:1058B0004FF000020429C0F0128010F0030C00F039
:1058C0001B80CCF1040CBCF1020F18BF00F8012BB7
:1058D000A8BF20F8022BA1EB0C0100F00DB85FEA85
:1058E000C17C24BF00F8012B00F8012B48BF00F851
:1058F000012B70474FF0000200B5134694469646C0
:10590000203922BFA0E80C50A0E80C50B1F12001D2
:10591000BFF4F7AF090728BFA0E80C5048BF0CC080
:105920005DF804EB890028BF40F8042B08BF7047DE
:1059300048BF20F8022B11F0804F18BF00F8012B50
:10594000704710B5044610F0030F08BF11F0030FA5
:1059500040F015804FF0013E121FC0F20E8051F84A
:10596000043BA3EB0E0C2CEA030C1CEACE1C08BF74
:1059700040F8043BF0D0A1F1040102F10402521EF0
:1059800008DB11F8013B002B00F8013BF7D1114671
:10599000FFF78EFF204610BD4FF0013C50F8042B5E
:1059A00051F8043B9A4221D1A2EB0C03934313EA32
:1059B000CC1317D150F8042B51F8043B9A4215D15F
:1059C000A2EB0C03934313EACC130BD150F8042B36
:1059D00051F8043B9A4209D1A2EB0C03934313EA1A
:1059E000CC13DBD04FF00000704700BFD01A01BAD3
:1059F000B1FA81F101F0180122FA01F0CB40C1F1B6
:105A00002001DBB2C0B2C01A2CFA01F3D11A9143C3
:105A100011EAC311E6D1704770477047704770476D
:105A200009684A0501D540B27047C905FCD500B2E6
:105A3000704709684A0501D5C0B27047C905FCD551
:105A400080B270472DE9F0470D46994692460446CC
:105A500000F124080168880604D5E06921F01001EE
:105A6000216000E00120A84201DD471B00E0002783
:105A7000A1697A1902EB0900081AA0612078C00612
:105A800002D42046FFF70EFC002608E0D4E90121ED
:105A90001AF806009047206A401C761C20624E458A
:105AA000F4DB2078C0060AD52046FFF7FBFB06E0B2
:105AB000D4E9012130209047206A401C2062381E22
:105AC000A7F10107F4DC07E0D4E9012118F805008B
:105AD0009047206A401C2062281EA5F10105F3DCD6
:105AE0002046FFF7F5FB2078000602D50220BDE82E
:105AF000F0870120FBE711680268006A530501D5B1
:105B000008700AE0D30501D5088006E0130603D526
:105B1000C217C1E9000200E00860012070470000E0
:105B200001694A1C02610878704700B58FB0CDE961
:105B300001310021059105497944CDE90310114651
:105B40006846FFF785FC0FB000BD0000E5FFFFFFD2
:105B50000A6802F8010B0A60704710B5436913B177
:105B6000AFF3008001E0FFF7C4FB012010BD127805
:105B700000F124010A7000224A700122EDE7116849
:105B80004FF0FF32E9E700002DE9FF5F15468A4636
:105B90000446DFF8AC80F8440027D8E900103E4600
:105BA000CDE9001010E03AF816106A4602A800F09D
:105BB000ADFE411C07D02178890603D5E26939186A
:105BC00091420DD80744761C2078800602D5E06902
:105BD000B84205DDAE42E6DB3AF816000028E2D115
:105BE000A069C01BA0612046FFF75CFBD8E900104C
:105BF000CDE90010002017E03AF818106A4602A814
:105C000000F084FEB0F1FF3F81460BD000250DF17E
:105C1000080B05E0D4E901211BF8050090476D1C35
:105C20004D45F7D308F10100B0428046E4DB206A1D
:105C3000384420622046FFF74BFBBDE8FF9F000081
:105C4000966B00002DE9F0418046D21D22F007023C
:105C50000025D2E90002F52915A614D0011E72F123
:105C6000000106DA0023D0EB030063EB020211A669
:105C700008E0D8F800108B0701D50FA602E049070D
:105C800001D50EA601251146002408F1240704E0E1
:105C900000F092F830323A55641C50EA0102F7D114
:105CA0002B46324621464046BDE8F041FFF7CABECA
:105CB000000000002D0000002B000000200000006C
:105CC00030B4002100F1240408E002F00705D208F6
:105CD000303542EA4372DB086554491C52EA030539
:105CE000F3D10468002310A2250708D504F020048E
:105CF0000C4304D0C46901230CA2641EC46130BCEF
:105D0000FFF7A0BE10B5044621461068FFF791FECC
:105D100002462046BDE810400023D1E7D21D22F004
:105D20000701D1E90023CBE70000000030000000AC
:105D30003A2800D2303820F02002412A01D3A2F1C3
:105D40003700884201D34FF0FF307047026811449A
:105D50001378016018467047D16005497944516154
:105D600004497944116200211161114600F014BC0C
:105D7000EDFFFFFFDD000000426842B1016811F84D
:105D8000013B23B1521EC0E90012184670470121A1
:105D9000C160881E704742685AB1C368016843B940
:105DA00083688B4205D0491E521CC0E900120020B6
:105DB00070474FF0FF30704730B5B0F10A024FEA3C
:105DC000900E71F100034EEA817EB0EB0E0061EBA4
:105DD00091014FEA101E4EEA017E10EB0E0041EBDE
:105DE00011114FEA102E4EEA016E10EB0E0041EB3E
:105DF00011214FEA104E4EEA014E10EB0E0041EB1E
:105E00001141401841F100014FEAD00040EA4170D1
:105E10004FEAD10110EB80054FEA810444EA907407
:105E200044EB01046D1944EB0404521BA3414FF0F1
:105E3000000348BF0A3200D530BD401C41F10001CB
:105E400030BD10B5044600F0A7FD0068005D00F00D
:105E5000010010BD70472DE9FF4F0C461E464FF064
:105E6000FF378BB0D2E90001DDF860800A908A46E6
:105E7000C1F30A5505B93D46002108464FF0000020
:105E8000BAF1000F00F4400005DA00EB80004FF497
:105E9000400101EA50004FEA9059B9F1010F00DDCD
:105EA000B9460A9850EA4A000ED044F61050A5F2BE
:105EB000FF3545432F14B8F1000F1ED07542291E3F
:105EC0001EDDC9F100021CE0B8F1010F4FF0000027
:105ED00001D0302103E0F24305E02154401CB042E0
:105EE000FBDB30460022002121540B99C1F80880C9
:105EF000C1E900200FB0BDE8F08FBD1B6D1CDEE7CF
:105F00004A4600DA694206A800F092FD06AB93E823
:105F1000070003AB83E8070050460A9900F004FE2F
:105F20008DE80700A0F500501F3800900398002D61
:105F300009DD42F21F014A46084403A9039068465E
:105F400001F063F808E0A0F500504A461F3803A9A5
:105F50000390684601F06DF88DE807000004000C1E
:105F600003D04FF0FF30410800E01046B8F1000FB9
:105F700003D00022009215461EE0751E05D4FFF7DF
:105F80001BFF303262556D1EF9D5B346012208431E
:105F900002D000227F1C04E02078302801D10022AA
:105FA0007F1E002A099786D01DE0112D07DAFFF722
:105FB00003FF303262556D1C50EA0102F5D10843EF
:105FC00002D00098C8B10EE00021681E05E0235CF5
:105FD000625C63542254401E491C8142F7DBAB468D
:105FE000A81B401E0990002004F80B000B98099A8A
:105FF000C0F80880C0E9002B7CE711264FF00008AC
:1060000059E72DE9F04F88460446D21D22F00701DA
:1060100091B0D1E90001CDE90A0105F0D7FF0246B0
:106020000B98C00F01D02D2007E02068810701D513
:106030002B2002E0202101EAC000032A099001D0B0
:10604000072A05DB03464146204600F0B1FC0BE180
:106050002078800601D5E06900E00620B8F1650FE0
:10606000814606D0B8F1660F18D0B8F1670F70D12D
:1060700031E00020B9F1110F009001DB112301E0A4
:1060800009F101030AAA01A90CA8FFF7E4FEDDE962
:106090000C70002609F10105834647E001204B46BC
:1060A00000904FF000470AAA01A90CA8FFF7D3FE01
:1060B000DDE90DB00C995D46002610B909F101002B
:1060C0000D18B9EB050003D4C0F1FF3609F1010545
:1060D000A5EB09002BE0B9F1010F01DA4FF001093E
:1060E0000020B9F1110F0090484601DD112300E0B6
:1060F00003460AAA01A90CA8FFF7ADFEDDE90C7062
:106100004D4600268346207800070AD4AB4500DAC6
:106110005D4601A8012D04DD411911F8011C30294B
:1061200007D04F4502DA17F1040F04DA0120824646
:106130000FE06D1EEEE7002F02DCED1B3E4403E096
:10614000781CA84200DD7D1CB81B00F1010A4FF04D
:1061500000472078000703D4AA4501DB4FF0FF3A3F
:106160000021B7F1004F0DF143088DF8431024D002
:1061700002202B23002F01DA7F422D230A21021E49
:10618000A0F1010000DC5FB197FBF1FC97FBF1F29D
:1061900001FB1C7C17460CF1300C08F801CDEEE732
:1061A000A8F1010003702188090501D5452100E00F
:1061B0006521A0F1010800F8011C09980FA9A1EBC5
:1061C0000807FF1D00B10120411901EBEA70A16928
:1061D0003844081A401EA0612078C00602D4204628
:1061E000FFF760F8099828B1D4E901219047206AA7
:1061F000401C20622078C00622D52046FFF752F8C6
:106200001EE0002E04DBB34502DD01A8805D00E046
:106210003020D4E901219047206A401C2062761C7E
:10622000AAF101005FEA000A0AD100F0BDFBC068D4
:106230000168405CD4E901219047206A401C20623B
:10624000281EA5F10105DCDC07E0D4E9012118F8DE
:10625000010B9047206A401C2062381EA7F10107FD
:10626000F3DC2046FFF734F8032011B043E60000CA
:106270002DE9F04F04460D46D21D22F0070089B0EB
:10628000D0E900974846394605F0A0FE0246F80FCF
:1062900001D02D2307E02068810701D52B2302E0E0
:1062A000202101EAC0038DF820300BB1012000E06D
:1062B0000020032A824601D0072A04DB2946204613
:1062C00000F076FB3FE12078800601D40D2500E048
:1062D000E569C7F30A560D2D49DA00214FEA175B2D
:1062E00008464FF00000002F00F4400007DA00EBF2
:1062F00080004FF4400100EBD07001EA600081158E
:10630000012901DD4FF0FF3100224FEA850CBCF17D
:10631000180F06D31346ACF118004FF08052C2405C
:1063200003E04FF4801323FA0CF30CF10C0CBCF1D6
:10633000200F04D3ACF1200C09FA0CF001E007FAAD
:106340000CF000294FF0004801DD18B90FE00ED124
:1063500040450CD319EB02095F4121B9404502D1F8
:106360009F4329EA0209BBEB175F00D0761C208807
:10637000000502D57B48784402E07A487844193811
:1063800008AA302302F80A30037C0AF10101002E2A
:106390000AF1020A53546A4602DC4FF0300101E070
:1063A0004FF031014FF001088DF8001002D0A6F235
:1063B000FF3603E059EA470100D06B4E002D02DCA6
:1063C0002178090704D54FF002082E218DF801101D
:1063D000C44600210BE0C7F303433F01C35C491CE3
:1063E0006D1E02F80830052908F1010801DA002DB8
:1063F000F1DC00210CE000EB1973491C1B786D1EC9
:10640000082902F808304FEA091908F1010801DAF1
:10641000002DF0DC21688B0602D516E0A8F10108FA
:10642000E04505DD02EB080313F8013C302BF5D005
:10643000B8F1000F09DD02EB080313F8013C2E2B25
:1064400003D1090701D4A8F10108002D05DD3E2183
:1064500002F808106D1E08F10108407C002E02F8B9
:10646000080008F1010804DA2D20764202F808003D
:1064700002E02B2002F808000A214FF47A708642CD
:1064800008F101080BDB96FBF0F3303302F808301B
:1064900096FBF0F308F1010800FB136601E0642E9F
:1064A0000CDB642096FBF0F3303302F8083096FBE7
:1064B000F0F308F1010800FB136601E00A2E06DB89
:1064C00096FBF1F0303002F8080008F1010896FB65
:1064D000F1F001FB1060303002F80800A16908F10A
:1064E000010808EB050202EB0A00081AA0612078F7
:1064F000C00602D42046FEF7D5FE216A08AE01EBA5
:106500000A00206204E0D4E9012116F8010B90474B
:10651000BAF1010AF7D22078C00602D52046FEF76C
:10652000C1FE6E4609E016F8010B3E280FD0D4E9F3
:1065300001219047206A401C2062B8F10108F2D284
:106540002046FEF7C5FE09B00320BDE8F08F206AA3
:106550002844206203E0D4E90121302090476D1ED9
:10656000EBD3F8E7D163000002FCFFFF10B54369ED
:1065700013B1AFF3008001E0FFF706FB012010BD6F
:10658000128800F1240182840022C2840122EDE7F6
:1065900011684FF0FF32E9E72DE9F34F4FF0000AA1
:1065A0000C4656468DB001200C9001F10C000B906A
:1065B00062690B9801219047051E2DD0252D2CD006
:1065C000216A8847C0B162690B9801219047216A0E
:1065D00088470028F7D16269411E0B98904700E078
:1065E000761CA1690D988847216A88470028F7D151
:1065F000E1690D988847DBE7A1690D988847A842B3
:10660000074601D1761CD3E7E1690D9888477F1CC6
:1066100002D1BAF1000F6FD06BE162690B980027CD
:106620003D46394690472A2804D162690B980121DA
:1066300090470125DFF8D08262690B9801219047CD
:10664000A0F130010A290AD24745E5DC07EB8701B2
:1066500000EB4107303FDFD445F01005ECE7E906D9
:1066600001D46FF000476C280AD04C2814D0682859
:1066700015D06A280DD074281CD07A281AD01DE0B5
:1066800062690B98012190476C2802D045F00405FF
:1066900014E045F002050DE045F020050AE06269CE
:1066A0000B9801219047682802D045F0080505E0C5
:1066B00045F4006562690B9801219047C4E90157D0
:1066C00065283DD019DC58287AD00CDC452837D015
:1066D00004DC252826D041289ED131E046282FD041
:1066E000472899D12CE05B2877D0612828D06328EF
:1066F0007CD0642823D15AE0F6E06F2848D008DC2B
:1067000066281DD067281BD0692821D06E2816D195
:1067100027E0702845D0732868D0752847D078289E
:106720000DD14DE0A1690D988847252805463FF415
:1067300069AFE1690D9888476D1C3FF46AAFD8E0F6
:106740000D9923466A466FF00100AFF30080C5E063
:1067500045F0400023464FF000026060A80736D4A1
:106760003EE0E8077FF447AF2068011D2160006824
:10677000290501D506701BE7290701D5068017E713
:10678000A90703D5F117C0E9006111E706600FE71B
:1067900045F0400023464FF008026060A80716D479
:1067A0001EE040F60E0125EA0100606016E045F0AB
:1067B000400023464FF00A026060A80707D40FE0AC
:1067C00045F040006060A80708D5234610220D99C7
:1067D0006FF00100AFF3008080E007E01022234655
:1067E0000D996FF00100FEF715FF77E04FF00009FB
:1067F00063284F46C8464B46CB4602D05B2806D09E
:1068000038E0E80601D40120A060012732E0626987
:10681000D4F80CB00B98012190475E2807D14FF0B7
:10682000010949466269D4F80CB00B989047216978
:1068300039B900210A4603AB43F82120491C082935
:10684000FADBD8B3216949B308F1010862690B98F2
:10685000012190475D28F4D1B9F1000F09D0002043
:1068600003A951F82020D24341F82020401C0828D9
:10687000F7DB03AB2069002820794FEA40701ED077
:106880005B462246CDF80080CDE901970D9900289E
:106890006FF0010020DAAFF300801FE0C11703AAF8
:1068A00000EBD1614B1121F01F0102EB8302411A71
:1068B00013680120884003431360C7E719E00D996E
:1068C000224600286FF00100009702DAAFF3008043
:1068D00004E0AFF3008001E0AFF3008000280ADAA3
:1068E000401C06D10C9820B14FF0FF300FB0BDE82E
:1068F000F08F5046FAE7E90701D10AF1010A064490
:1069000000200C9054E60000CCCCCC0C70B51646A0
:106910000C46054600F040F8036893F80101012891
:1069200006D0FF2C0FD8185D68B101202C7070BD07
:10693000D3F807013246214603F2071303442846E1
:10694000BDE8704018474FF0FF3070BD754600F04D
:10695000E7F8AE4605006946534620F00700854635
:1069600018B020B5FEF778FCBDE820404FF00006D7
:106970004FF000074FF000084FF0000B21F0070127
:10698000AC46ACE8C009ACE8C009ACE8C009ACE86A
:10699000C0098D467047000010B500F005F8001DD5
:1069A00010BD00BF915B000000487047181A00201E
:1069B0002DE9F0411F46044603260168072A01F429
:1069C000006004DB08B116A505E016A503E008B1D8
:1069D00015A500E015A521F010002060A069C01EDB
:1069E000A0610FB1401EA0612046FEF75BFC4FB1D5
:1069F000D4E9012138469047206A401C2062C01C1F
:106A0000206206E0206AFAE7D4E9012115F8010BBB
:106A10009047761EF8D22046FEF75AFCBDE8F0817A
:106A20004E414E006E616E00494E4600696E660032
:106A30002DE9F047814616468AB0334878440DC8A0
:106A40008DE80D0030487844801C03AC0DC884E804
:106A50000D0041F69B300844372190FBF1F290FB8A
:106A6000F1F5A5F1800501FB12041B3C02D564423F
:106A7000012000E00020DFF890A080460027FA44C3
:106A8000AAF1BE0A0DE0E00709D03246684607EBDE
:106A900047010AEB810100F0CCFA8DE80700641091
:106AA0007F1C002CEFD1184F7F44AC3F18E0E80763
:106AB00014D007EB04100DF1180A90E80E008AE8D4
:106AC0000E00C068F04201D198190890324606A91C
:106AD00003A800F0AEFA03AB83E807006D10641C56
:106AE000002DE4D132466946B8F1000F03A802D068
:106AF00000F08BFA01E000F09CFAC9E90001C9F846
:106B000008200AB0BDE8F0879C5D000010B504467F
:106B1000AFF300802046BDE81040FEF788BB0000C0
:106B200000487047F81900205FEA400C08BF91F058
:106B3000000F4FEA8C234FEAC12243EA51514FEA3A
:106B40001C5018BF00F5F0404FEA300018BF41F06C
:106B500000415FEA6C5C00F02980BCF1FF3F08BF98
:106B600040F080407047130C06BF12044FF0100C29
:106B70004FF0000C130E04BF12020CF1080C130F9F
:106B800004BF12010CF1040C930F04BF92000CF12E
:106B9000020CD30F04BF52000CF1010C11464FF050
:106BA0000002A0F11F00A0EB0C00704711F0004F95
:106BB00008BF704731F000413FF4D5AF0B0C06BF62
:106BC00009044FF0100C4FF0000C0B0E04BF09022B
:106BD0000CF1080C0B0F04BF09010CF1040C8B0F16
:106BE00004BF89000CF1020CCB0F04BF49000CF16B
:106BF000010CCCF12003A0EB0C0022FA03F302FA03
:106C00000CF241EA030100F10100704720F07F4CD3
:106C100080EA030023F07F47ACEB070303F57C53C6
:106C200000F0004003F1FF032DE980494FEA154BC6
:106C300009B44FEA144325EA0B4E24EA03480FF245
:106C4000042606EB132749083E785FEA320203FB6D
:106C50000667C7F5000707FB06F64FEA54374FEA09
:106C6000D64606F1020607FB066CCCF1005C4FEA43
:106C70001C472CEA074C07FB06F40CFB06F504EB5B
:106C800015464FEA961634BF00204FF000404FEAF9
:106C9000D13706FB07FC4FEA1C4C0CFB0BF7D21B51
:106CA00003FB0CF761EB07010CFB0EF7B0EB0740A1
:106CB00072EB17420CFB08F734BFA2EB0742B2EBB2
:106CC000074261EB17414FEA0C444FEA910706FB7C
:106CD00007FC4FEA1C4C0CFB0BF7B0EBC74072EB08
:106CE000573203FB0CF734BFA2EBC742B2EBC742EB
:106CF00061EB57310CFB0EF7B0EBC70072EB57722C
:106D00000CFB08F734BFA2EBC702B2EBC70261EB82
:106D10005771039F4FEA816141EA921104EBCC0461
:106D20004FEAD1374FEA826206FB07FC42EA901233
:106D30004FEA80604FEA1C4C0CFB0BF7D21B03FBA5
:106D40000CF761EB07010CFB0EF7B0EB074072EBA1
:106D500017420CFB08F734BFA2EB0742B2EB074225
:106D600061EB17414FEA8C554FEA910704EB9C24E5
:106D700006FB07FC4FEA1C4C0CFB0BF7B0EBC740C3
:106D800072EB573203FB0CF734BFA2EBC742B2EBF6
:106D9000C74261EB57310CFB0EF7B0EBC70072EB4B
:106DA00057720CFB08F734BFA2EBC702B2EBC70265
:106DB00061EB577115EB4C254FEA816141EA921165
:106DC0004FEA82624FEAD13742EA901206FB07FC93
:106DD00044F100044FEA80604FEA1C4C0CFB0BF7B7
:106DE000D21B03FB0CF761EB07010CFB0EF7B0EBBA
:106DF000074072EB17420CFB08F734BFA2EB0742C7
:106E0000B2EB074261EB174115EB1C154FEA8131DC
:106E100041EA92414FEA823242EA90424FEA8030A0
:106E20004FEA0C7644F1000448EA03434EEA0B486B
:106E30004FF0000EB2EB080C71EB030724BF624663
:106E400039464EEB0E0E4FF0000B001852414941EF
:106E50004BEB0B0BB2EB080C71EB03077BF1000B58
:106E600024BF624639464EEB0E0E4FF0000B001861
:106E7000524149414BEB0B0BB2EB080C71EB030792
:106E80007BF1000B24BF624639464EEB0E0E51EAF1
:106E9000020718BF46F0010616EB0E7655F1000208
:106EA00054F1000103D5BDE88901BDE80088BDE8C3
:106EB0008901BDE80048B619524141EB0101A3F137
:106EC0000103704780807F7E7D7C7B7A797877763E
:106ED00076757473727171706F6E6E6D6C6C6B6AB7
:106EE0006A69686867666665646463636261616055
:106EF000605F5F5E5E5D5D5C5C5B5B5A5A595958D2
:106F0000585757565655555554545353525252513B
:106F1000515050504F4F4F4E4E4D4D4D4C4C4C4B91
:106F20004B4B4A4A4A4949494848484747474746D8
:106F30004646454545444444444343434342424214
:106F400042414141002B26D4770021D01CB54FEAA5
:106F5000370703B44FF010004FF010014FF000005E
:106F60000FBCBDE810400BF1010BBBF1010F08BFD6
:106F70005FEA170722BF12F1010211F101014FF080
:106F8000004143F1000300F0004043EA0000704775
:106F9000F9D35708DAE746EA064613F1400F4FEAFD
:106FA00016461FDD13F1200FDFBF16430A460021EE
:106FB00020335B42C8D0C3F1200746EA064602FAF6
:106FC00007F74FEA164646EA0706C3F1200722FAFA
:106FD00003F201FA07F721FA03F14FF0000342EA46
:106FE0000702B1E746EA020646EA06464FEA1646B7
:106FF00046EA0106BCBF46EA0646360C4FF00003DF
:107000004FF000024FF000019EE72DE9C048934683
:1070100030B491E8380007C831EA400C48BF34EA80
:10702000430C03D5FFF7F2FDFFF78CFFF0BCBDE882
:1070300000882DE9C048934630B491E8380007C86D
:1070400010F0804F08BF13F0804F03D100F005F817
:10705000FFF778FFF0BCBDE8008820F07F4780EAAA
:10706000030023F07F4C07EB0C03A3F57C5300F0E7
:107070000040A3F1FE0392F0000F00F0B38095F002
:10708000000F00F077802DE901494FEA11404FEAE7
:10709000144621EA004800FB06FC24EA064708FBE8
:1070A00006F607FB08F800FB07F718EB06484CEB61
:1070B000164C4FEA124B18EB07484FEA15464CEBBB
:1070C000174022EA0B4E0BFB06FC25EA06470EFB97
:1070D00006F607FB0EFE0BFB07F71EEB064E4CEB0E
:1070E000164C4FF000061EEB074E4CEB174B18EBFF
:1070F0000B0840F1000018EB0E0B58EB000840F1B4
:1071000000008F1A4FF000013CBFC943661B14BF3B
:10711000B5EB040C00213CBFC943F61B4FEA1744F2
:107120004EEA8E0E27EA04454FEA1C4704FB07622D
:107130002CEA074C05FB07F70CFB05F604FB0CFCDF
:1071400016EB074642EB174216EB0C4642EB1C428D
:107150001BEB060658EB0202414146EA9E0601D5AA
:10716000BDE80189B619524141EB0101A3F10103C8
:10717000BDE801894FEA14454FEA114724EA054664
:1071800021EA074C05FB07F406FB07F70CFB06F1A9
:1071900005FB0CFC11EB074144EB17444FEA124787
:1071A00011EB0C4144EB1C4422EA074C05FB07F2AF
:1071B00006FB07F70CFB06F605FB0CFC16EB074677
:1071C00042EB174216EB0C4642EB1C456A1854F191
:1071D000000148BF7047B619524141EB0101A3F1CC
:1071E0000103704795F0000F37D04FEA11424FEA84
:1071F000144721EA024624EA074C02FB07F106FB8A
:1072000007F70CFB06F402FB0CFC14EB074441EB04
:1072100017414FEA154714EB0C4441EB1C4125EA9A
:10722000074C02FB07F506FB07F70CFB06F602FB13
:107230000CFC16EB074645EB174516EB0C4645EBE9
:107240001C42121951F1000148BF7047B619524152
:1072500041EB0101A3F1010370474FEA14454FEAE6
:10726000114724EA054621EA074C05FB07F106FB16
:1072700007F70CFB06F24FF0000605FB0CFC12EBC7
:10728000074241EB174112EB0C4251EB1C4148BF46
:107290007047921841EB0101A3F101037047000010
:1072A00010B586B0044600BF1948006840F00200DF
:1072B000174908600846006800F00200009000BF0F
:1072C00000BF881501900120029000200390032048
:1072D000049001A90F4800F029FC012C05D10122DE
:1072E00011020C4800F012FD06E02CB900224FF408
:1072F0008071084800F00AFD4FF480700190002072
:10730000049001A9034800F011FC06B010BD000074
:107310001C3802400004024070B504460D460026A9
:1073200000BF0DE00120FFF7BBFF284600F032F858
:107330000020FFF7B5FF284600F02CF8701C86B23D
:10734000A642EFDB70BD2DE9F04104460D4616461E
:10735000002700BF0DE00120FFF7A2FF284600F044
:1073600019F80020FFF79CFF304600F013F8781C56
:1073700087B2A742EFDBBDE8F08100BFFEE77047B0
:1073800010B50446042002F009FB0148046010BD5A
:107390000C00002030B50446002504E04FF47A705C
:1073A00000F004F86D1CA542F8D330BD70B503465B
:1073B00000224FF0E02675690F4E366803FB06F495
:1073C0004FF0E026B16913E04FF0E026B069884243
:1073D0000ED0884202D20E1A324402E02E1A0E4417
:1073E00032440146C2EB0226B4EB860F00D800E01F
:1073F000EAE700BF70BD00000C00002072B67047C5
:1074000062B6704710B54FF4806000F081FB10BD8C
:107410002DE9F04104460D4600260027B0464CF207
:10742000503000F051FA0646002E36D11C48006854
:1074300020F480701A49086035B125704CF2503044
:1074400000F042FA064628E024F00308D8F800705D
:10745000A007C10EFF2000FA01F827EA080724F070
:107460000301022000F0B8FA064600BF00200D49D3
:10747000087400BF24F003013A46102000F0D6FA49
:10748000064600BF0748007C012802D10220BDE863
:10749000F08101200349087400BF3046F7E700007F
:1074A000043C0240940000202DE9F04104460D46C2
:1074B00000260027B0464CF2503000F005FA064690
:1074C000002E46D12448006820F4807022490860CC
:1074D00035B125804CF2503000F0F6F9064638E020
:1074E00000BF00201D49087400BF04F003000328FA
:1074F00019D024F00308D8F80070A007C10E4FF689
:10750000FF7000FA01F827EA080724F003010220BF
:1075100000F062FA064624F003013A46102000F01B
:1075200085FA064609E000222146042000F07EFA92
:107530000022611C042000F079FA00BF0748007C9B
:10754000012802D10220BDE8F0810120034908741E
:1075500000BF3046F7E70000043C024094000020E2
:1075600070B504460D4600264CF2503000F0ACF9E0
:1075700006465EB90648006820F480700449086039
:1075800025604CF2503000F09FF90646304670BD41
:10759000043C02402DE9F04104460D460026B04669
:1075A00000274CF2503000F08FF9064686BB35B10B
:1075B00025704CF2503000F087F9064628E024F0A0
:1075C0000307D7F80080A007C10EFF2000FA01F7DB
:1075D00028EA070824F00301022000F0FDF906461E
:1075E00000BF00200B49087400BF24F0030142468D
:1075F000102000F01BFA064600BF0648007C012858
:1076000002D10220BDE8F08101200249087400BFC8
:107610003046F7E7940000202DE9F04104460D467E
:1076200000260027B0464CF2503000F04DF90646D7
:10763000002E40D135B125804CF2503000F044F995
:10764000064638E000BF00201C49087400BF04F063
:107650000300032819D024F00308D8F80070A0070D
:10766000C10E4FF6FF7000FA01F827EA080724F070
:107670000301022000F0B0F9064624F003013A4667
:10768000102000F0D3F9064609E00022214604202C
:1076900000F0CCF90022611C042000F0C7F900BF03
:1076A0000648007C012802D10220BDE8F0810120BB
:1076B0000249087400BF3046F7E70000940000203C
:1076C00070B504460D4600264CF2503000F0FCF830
:1076D00006462EB925604CF2503000F0F5F806460B
:1076E000304670BD10B50446204600F001F810BDCC
:1076F00001460148085C70470000080838B5044698
:10770000002000902046FFF7F3FF8DF80000601C7A
:10771000FFF7EEFF8DF80100BDF8000038BD38B569
:107720000446002000902046FFF7E2FF8DF800009D
:10773000601CFFF7DDFF8DF80100A01CFFF7D8FFEC
:107740008DF80200E01CFFF7D3FF8DF803000098CE
:1077500038BD00002DE9F04105460E461746FFF7FB
:107760004DFE00F0B7F94FF40060094908600024AD
:1077700005E0315D281900F023F8601C84B2BC429A
:10778000F7DB00F049F9FFF73BFEBDE8F0810000B0
:10779000183C024070B504460D46FFF72FFE00F07E
:1077A00099F94FF40060054908602946204600F029
:1077B00007F800F031F9FFF723FE70BD183C0240D6
:1077C00070B504460D462A4602482118002000F0F4
:1077D0002DF970BD0000080813B50446FFF70EFE32
:1077E00000F078F94FF40060084908609DF8041033
:1077F0002046FFF7E5FF9DF80510601CFFF7E0FF4E
:1078000000F00AF9FFF7FCFD1CBD0000183C024027
:1078100013B50446FFF7F2FD00F05CF94FF4006089
:107820000D4908609DF804102046FFF7C9FF9DF838
:107830000510601CFFF7C4FF9DF80610A01CFFF7A1
:10784000BFFF9DF80710E01CFFF7BAFF00F0E4F857
:10785000FFF7D6FD1CBD0000183C0240002018496F
:10786000096801F48071B1F5807F07D11549496934
:1078700041F00201134A516140F4807010490968D7
:1078800001F40071B1F5007F07D10E49496941F05B
:1078900001010C4A516140F400700949096801F482
:1078A0000061B1F5006F07D10649496941F0040153
:1078B000044A516140F400600149086070470000CB
:1078C000183C02409400002070B5044600F024FAF1
:1078D000054609E0601C38B124B100F01DFA401BD8
:1078E000A04201D9032070BD1448006800F00100D7
:1078F0000028EFD11148006800F00200022801D1F1
:107900000E4908600D48006800F48070B0F5807F73
:107910000DD00A48006800F40060B0F5006F06D092
:107920000648006800F40070B0F5007F03D1FFF74F
:1079300095FF0120D7E70020D5E70000183C024062
:1079400038B50446002000902068009029B902F163
:107950000800009D2844009004E002F11400009DFE
:107960002844009000980360002038BD024600BF04
:107970005079012801D1022070470120507100BFC9
:10798000022010711068006801238B4018431368AF
:10799000186061B91068006800F03C003C2813D101
:1079A0001068406840F00100136858600CE01068EF
:1079B000006800F47010B0F5701F05D110684068C1
:1079C00040F00200136858600120107100BF0020D1
:1079D000507100BF00BFCFE770B504460D460026CA
:1079E0004CF25030FFF770FF06468EB9002009496F
:1079F0004861022C00D12860012C01D10020288090
:107A00000CB9002028704CF25030FFF75DFF06469D
:107A1000304670BD940000200348006840F001002B
:107A20000149086000207047043C02402DE9F04104
:107A300004460E461546012700BF2548007C012854
:107A400002D10220BDE8F08101202149087400BF65
:107A50004CF25030FFF738FF074607BB00201C49A7
:107A60004861022C05D129463046FFF729FE07461A
:107A700027E0012C05D1A9B23046FFF7CDFD07461E
:107A80001FE02CB9E9B23046FFF784FD074618E045
:107A9000042C05D1E9B23046FFF7BAFC074610E0E6
:107AA000082C05D1A9B23046FFF7FEFC074608E0D6
:107AB000102C05D129463046FFF752FD074600E05D
:107AC000012700BF00200249087400BF3846B9E70B
:107AD000940000200748006800F0010030B106481B
:107AE0000449083108600548086001E0012070473A
:107AF0000020FCE7043C0240EFCDAB890504030203
:107B000010B50446B4F5806F01D102F059FF10BDE5
:107B100010B5044604480068204020B102480460C3
:107B20002046FFF7EDFF10BD1404014078B5034671
:107B3000002200240020CAE0012696400D6805EAD4
:107B40000604002C71D04D68022D02D04D68122D14
:107B500013D1D60803F1200555F826005507EE0E7F
:107B60000F25B540A8435607F60E0D69B5402843CA
:107B7000D60803F1200545F82600186856000325AD
:107B8000B540A8430D7905F003055600B5402843DC
:107B900018604D68012D08D04D68022D05D04D6844
:107BA000112D02D04D68122D13D19868560003256F
:107BB000B540A8435600CD68B54028439860586842
:107BC00001259540A8430D79C5F30015954028433C
:107BD0005860D86856000325B540A84356008D6804
:107BE000B5402843D8604D6805F08055B5F1805FF9
:107BF0006CD100BF394D2D6845F00105374E356019
:107C000035462D6805F00105009500BF00BF344DD5
:107C1000960855F8260095072E0F0F25B540A84366
:107C2000304DAB4202D1002515E04FE02E4DAB4266
:107C300001D101250FE02D4DAB4201D102250AE013
:107C40002B4DAB4201D1032505E02A4DAB4201D1BA
:107C5000042500E005259607360FB5402843204D42
:107C6000960845F82600244D2868A0434D6805F481
:107C70008035B5F5803F00D120431F4D28602D1D74
:107C80002868A0434D6805F40035B5F5003F00D1E4
:107C90002043194D2D1D28602D1D2868A0434D68D7
:107CA00005F48015B5F5801F00D12043124D08352D
:107CB00028602D1D2868A0434D6805F40015B5F512
:107CC000001F00D120430C4D0C352860521C0D685C
:107CD000D540002D7FF430AF78BD00002038024041
:107CE0000800014000000240000402400008024079
:107CF000000C0240001002400004014002461369DB
:107D00000B400BB1012000E0002070470AB18161F7
:107D100001E00B0483617047014800687047000070
:107D20000000002070B504460CB9012070BD4CF66F
:107D3000CC402168086045F2555021680860D4E9BC
:107D4000001048602168A0688860FFF7E5FF0546DD
:107D500006E0FFF7E1FF401B302801D90320E5E7EB
:107D60002068C0680028F4D14AF6AA20216808607B
:107D70000020DBE701464AF6AA200A6810600020CE
:107D80007047000002480068401C014908607047C5
:107D90000000002010B500BF0A48006840F0040051
:107DA000084908600846006840F00200086000BF0B
:107DB000052000F079F80F2000F006F800F018F820
:107DC000002010BD003C024070B504460748006822
:107DD0004FF47A71B0FBF1F5284601F0F9FD00226D
:107DE0002146501E00F021F8002070BD1C0000202C
:107DF0007047000000BF00F01F0201219140034ABC
:107E0000430942F8231000BF7047000080E100E002
:107E100000BF00F01F02012191404209920002F1CF
:107E2000E022C2F8001100BF70472DE9F05F8046E4
:107E30000D461646002702F04DFA074639462A46F7
:107E4000334601F00700C0F1070ABAF1040F02D966
:107E50004FF0040A01E0C0F1070AD14600F1040A1C
:107E6000BAF1070F02D24FF0000A01E0A0F1030AB5
:107E7000D4464FF0010A0AFA09FAAAF1010A0AEAFD
:107E8000020A0AFA0CFA4FF0010B0BFA0CFBABF1E9
:107E9000010B0BEA030B4AEA0B042146404602F0B1
:107EA00021FABDE8F09F000000BF00F00702064B7A
:107EB00019684FF6FF031940044B0B4343EA0221B4
:107EC000014B196000BF70470CED00E00000FA059F
:107ED00000BF00BF00BF00BF00BFBFF34F8F00BF98
:107EE00000BF00BF0948006800F4E060084908438B
:107EF000001D0649086000BF00BF00BFBFF34F8FE1
:107F000000BF00BF00BF00BF00BFFDE70CED00E0F9
:107F10000000FA050120010291FAA1F1B1FA81F104
:107F2000014A42F82100704700000E42F8B50446AD
:107F3000002600250027207800F0010000287DD0D1
:107F4000207800F0010000B100BF6948006800F02F
:107F5000805070B900BF6648006840F080506449A6
:107F600008600846006800F08050009000BF00BF25
:107F700001276048006800F48070B0B95D4800686F
:107F800040F480705B490860FFF7C6FE064606E0D5
:107F9000FFF7C2FE801B642801D90320F8BD5548B5
:107FA000006800F480700028F2D05148243800683E
:107FB00000F0C045606800F0C040A8420DD0606885
:107FC00000F44030B0F5403F07D1494824380068FC
:107FD00000F4003008B10120E0E7454810300068A7
:107FE00000F44035002D59D0606800F44030A842BC
:107FF00054D0207800F0010078B33D48103000687C
:1080000020F440350120C10591FAA1F1B1FA81F1C6
:10801000394A02EB8101C1F8800600204FF40001CB
:1080200091FAA1F1B1FA81F102EB8101C1F8800668
:108030002F481030056005F4807000E056E060B114
:10804000FFF76AFE064609E0FFF766FE801B41F275
:108050008831884202D90320A0E71FE04020C100F8
:1080600091FAA1F1B1FA81F108430121B1EB601F4E
:1080700003D11F482438006802E01D481030006812
:108080004021CA0092FAA2F2B2FA82F2114301F040
:108090001F020121914008400028D5D000BF00BF39
:1080A000606800F44030B0F5403F0BD110482438F0
:1080B000006820F0C040616801F0C04108430C49ED
:1080C0002439086000BF0A4810300068616801F474
:1080D0004031084306491031086000BF012F05D127
:1080E0000348006820F0805001490860002055E7EF
:1080F00024380240007000400000474270B504463A
:108100000D460026B348006800F00100A84218D2CE
:1081100000BF012D05D1AF48006840F00400AD4913
:108120000860AC48006820F001002843A9490860B5
:1081300000BF0846006800F00100A84201D00120FD
:1081400070BD207800F00200022807D1A248006824
:1081500020F0F000A16808439F490860207800F0F3
:10816000010000287BD06068022821D12020010373
:1081700091FAA1F1B1FA81F108430121B1EB601F3D
:1081800003D195480838006802E093482C30006815
:1081900020210A0392FAA2F2B2FA82F2114301F00C
:1081A0001F0201219140084000286CD10120C7E73F
:1081B0006068032820D12020010591FAA1F1B1FACD
:1081C00081F108430121B1EB601F03D182480838D7
:1081D000006802E080482C30006820210A0592FAED
:1081E000A2F2B2FA82F2114301F01F020121914082
:1081F0000840A8BB0120A3E76068012820D1202007
:10820000022191FAA1F1B1FA81F108430121B1EB08
:10821000601F03D170480838006802E06E482C30B7
:1082200000682021022292FAA2F2B2FA82F21143ED
:1082300001F01F0201219140084088B901207FE729
:108240002020010191FAA1F1B1FA81F10843012145
:10825000B1EB601F05D160480838006804E069E0B0
:1082600011E05D482C30006820210A0192FAA2F248
:10827000B2FA82F2114301F01F020121914008403D
:1082800008B901205CE75448006820F003006168E9
:10829000084351490860FFF73FFD06466068022821
:1082A00010D108E0FFF738FD801B41F28831884289
:1082B00001D9032044E74848006800F00C00082872
:1082C000F0D137E06068032810D108E0FFF724FD03
:1082D000801B41F28831884201D9032030E73E48B3
:1082E000006800F00C000C28F0D123E06068012841
:1082F00010D108E0FFF710FD801B41F28831884261
:1083000001D903201CE73448006800F00C00042861
:10831000F0D10FE008E0FFF7FFFC801B41F288314D
:10832000884201D903200BE72B48006800F00C00BD
:108330000028F0D12748006800F00100A84218D9B1
:1083400000BF012D05D12348006840F004002149F9
:1083500008602048006820F0010028431D4908609B
:1083600000BF0846006800F00100A84201D00120CB
:10837000E6E6207800F00400042807D116480068DB
:1083800020F4E060E168084313490860207800F0B9
:108390000800082808D11048006820F460502169BE
:1083A00040EAC1000C49086000F09AF80A490968DF
:1083B00001F0F001F02292FAA2F2B2FA82F2D14078
:1083C000064A515CC840064908600F20FFF7FCFCD4
:1083D0000020B5E6003C02400838024071C50008A4
:1083E0001C0000202048006840F480701E4908608E
:1083F0001D480830006820F003001B490831086060
:1084000019480068194908401749086000201649B2
:1084100008310860081F00681549084000214FF026
:108420007F4292FAA2F2B2FA82F2914041F42041E4
:1084300008430D49091D08600846006820F4F850FB
:1084400010214FF4F85292FAA2F2B2FA82F291405D
:1084500008430549091D0860002003490C310860E4
:10846000044805490860704700380240FEFFFAEEF4
:10847000FF1FFF0068FF1F001C000020014800686C
:10848000704700001C00002000B5FFF7F7FF074908
:10849000096801F4E0614FF4E06292FAA2F2B2FAE4
:1084A00082F2D140024A515CC84000BD0838024007
:1084B00081C5000800B5FFF7E1FF0749096801F42D
:1084C00060514FF4605292FAA2F2B2FA82F2D140B5
:1084D000024A515CC84000BD0838024081C500080E
:1084E000F0B5002100230024002200250020254EA5
:1084F000316801F00C067EB3042E04D0082E04D09F
:108500000C2E2AD103E020483AE0204838E001F45C
:1085100070164FF4701797FAA7F7B7FA87F7FE406F
:108520001B4FBB5D01F440064FF4400797FAA7F7D5
:10853000B7FA87F7FE40741C124E366806F4803690
:1085400026B1124E5E43B6FBF4F203E00E4E5E43DC
:10855000B6FBF4F2104613E000E000BF094E361FF0
:10856000366806F460464FF4604797FAA7F7B7FA03
:1085700087F726FA07F56E1C0127B740F80300BFFE
:1085800000BFF0BD083802400024F40000127A0059
:1085900068C50008F8B504460025207800F0010001
:1085A000002879D0F748006800F00C0008280CD0AB
:1085B000F448006800F00C000C282BD1F14800684A
:1085C00000F48030B0F5803F24D12020010391FADF
:1085D000A1F1B1FA81F108430121B1EB601F03D190
:1085E000E8480838006802E0E6482C30006820219E
:1085F0000A0392FAA2F2B2FA82F2114301F01F02C8
:108600000121914008400028CBD06068002843D168
:108610000120F8BD00BF6068012808D1D94808389A
:10862000006840F48030D749083908602DE0606860
:1086300068B9D4480838006820F48030D149083936
:1086400008600846006820F4802008601DE060682B
:1086500005280DD1CB480838006840F48020C9496E
:10866000083908600846006840F4803008600CE073
:10867000C4480838006820F48030C24908390860CE
:108680000846006820F48020086000BF606860B37E
:10869000FFF742FB054607E052E0FFF73DFB401BBA
:1086A000642801D90320B4E72020010391FAA1F145
:1086B000B1FA81F108430121B1EB601F03D1B14848
:1086C0000838006802E0AF482C30006820210A0317
:1086D00092FAA2F2B2FA82F2114301F01F020121D2
:1086E000914008400028D8D02AE0FFF715FB054646
:1086F00006E0FFF711FB401B642801D9032088E73F
:108700002020010391FAA1F1B1FA81F1084301217E
:10871000B1EB601F03D19B480838006802E099481C
:108720002C30006820210A0392FAA2F2B2FA82F2F7
:10873000114301F01F020121914008400028D8D1C7
:10874000207800F00200022845D18E48006800F031
:108750000C0004280AD08B48006800F00C000C289C
:108760003BD18848006800F48030A8BB202002215B
:1087700091FAA1F1B1FA81F108430121B1EB601F37
:1087800003D180480838006802E07E482C30006839
:108790002021022292FAA2F2B2FA82F2114301F0EF
:1087A0001F0201219140084020B1E068012801D05A
:1087B00001202EE77348001F006820F4F8504FF4A2
:1087C000F85292FAA2F2B2FA82F221699140084379
:1087D0006C49091F08607DE0FFE7E068F0B3012005
:1087E00090FAA0F1B1FA81F1674A42F82100FFF74F
:1087F00093FA054606E0FFF78FFA401B022801D9DD
:10880000032006E72020022191FAA1F1B1FA81F1BB
:1088100008430121B1EB601F03D15A4808380068B2
:1088200002E058482C3000682021022292FAA2F27D
:10883000B2FA82F2114301F01F0201219140084077
:108840000028D8D04F48001F006820F4F8504FF49B
:10885000F85292FAA2F2B2FA82F200E006E021693E
:10886000914008434749091F086033E00020012177
:1088700091FAA1F1B1FA81F1434A42F82100FFF7E0
:108880004BFA054606E0FFF747FA401B022801D9DC
:108890000320BEE62020022191FAA1F1B1FA81F174
:1088A00008430121B1EB601F03D136480838006846
:1088B00002E034482C3000682021022292FAA2F211
:1088C000B2FA82F2114301F01F02012191400840E7
:1088D0000028D8D1207800F01000102873D1294842
:1088E000006800F00C0000286ED12020010191FAF0
:1088F000A1F1B1FA81F108430121B1EB601F03D16D
:1089000020480838006802E01E482C30006820210A
:108910000A0192FAA2F2B2FA82F2114301F01F02A6
:1089200001219140084018B1A06908B9012070E602
:108930001449091F206A096801F46041884225D959
:10894000206A01F007FD08B1012062E60D48001F12
:10895000006820F46040216A08430A49091F086042
:108960000846006820F07F404FF07F4292FAA2F262
:10897000B2FA82F2E169914008430249091F086096
:1089800023E000000838024000004742FC4800682D
:1089900020F46040216A0843F949086008460068ED
:1089A00020F07F404FF07F4292FAA2F2B2FA82F2B8
:1089B000E16991400843F2490860206A01F0CAFC6D
:1089C00018B1012025E6A5E01FE04FF4604191FABF
:1089D000A1F1B1FA81F1206AC840401C0121814017
:1089E000C803E749091D096801F0F001F02292FA75
:1089F000A2F2B2FA82F2D140E24A515CC840E249A6
:108A000008600F20FFF7E0F984E0A069F0B30120CF
:108A1000010291FAA1F1B1FA81F1DC4A42F8210098
:108A2000FFF77AF9054606E0FFF776F9401B0228C2
:108A300001D90320EDE52020010191FAA1F1B1FA5D
:108A400081F108430121B1EB601F03D1CC48001F25
:108A5000006802E0CA483030006820210A0192FA1A
:108A6000A2F2B2FA82F2114301F01F0201219140F9
:108A700008400028D8D0C248006820F46040216A2D
:108A80000843BF4908600846006800E00DE020F098
:108A90007F404FF07F4292FAA2F2B2FA82F2E1698D
:108AA00091400843B649086034E000204FF48071DB
:108AB00091FAA1F1B1FA81F1B44A42F82100FFF72D
:108AC0002BF9054606E0FFF727F9401B022801D9DC
:108AD00003209EE52020010191FAA1F1B1FA81F174
:108AE00008430121B1EB601F03D1A548001F0068B6
:108AF00002E0A3483030006820210A0192FAA2F275
:108B0000B2FA82F2114301F01F02012191400840A4
:108B10000028D8D1207800F0080008286ED16069BC
:108B2000A8B3012090FAA0F1B1FA81F1974A02EBC3
:108B30008101C1F88006FFF7EFF8054606E0FFF770
:108B4000EBF8401B022801D9032062E540200221F6
:108B500091FAA1F1B1FA81F108430121B1EB601F53
:108B600003D18748001F006802E085483030006864
:108B70004021022292FAA2F2B2FA82F2114301F0EB
:108B80001F020121914008400028D8D036E0FFE7BD
:108B90000021012090FAA0F0B0FA80F07B4A02EBAD
:108BA0008000C0F88016FFF7B7F8054606E0FFF72B
:108BB000B3F8401B022801D903202AE540200221F6
:108BC00091FAA1F1B1FA81F108430121B1EB601FE3
:108BD00003D16B48001F006802E06948303000682C
:108BE0004021022292FAA2F2B2FA82F2114301F07B
:108BF0001F020121914008400028D8D1207800F0C0
:108C00000400042875D100265D482030006800F07B
:108C1000805080B900BF5A482030006840F0805032
:108C20005749203108600846006800F080500090E5
:108C300000BF00BF01265648006800F48070B0B93C
:108C40005348006840F4807051490860FFF764F8A9
:108C5000054606E0FFF760F8401B642801D90320B1
:108C6000D7E44B48006800F480700028F2D000BFC1
:108C7000A068012808D142483030006840F4807074
:108C80003F49303108602DE0A06868B93C48303079
:108C9000006820F480703A49303108600846006866
:108CA00020F4806008601DE0A06805280DD13448DC
:108CB0003030006840F48060314930310860084647
:108CC000006840F4807008600CE02D483030006887
:108CD00020F480702A49303108600846006820F48A
:108CE0008060086000BFA06870B3FFF715F8054604
:108CF00009E06AE0FFF710F8401B41F28831884232
:108D000001D9032085E44020C10091FAA1F1B1FA14
:108D100081F108430121B1EB601F03D11848001F06
:108D2000006802E01648303000684021CA0092FA1C
:108D3000A2F2B2FA82F2114301F01F020121914026
:108D400008400028D6D035E0FEF7E6FF054608E0EB
:108D5000FEF7E2FF401B41F28831884201D903202F
:108D600057E44020C10091FAA1F1B1FA81F1084322
:108D70000121B1EB601F0DD10148001F00680BE01D
:108D80000438024071C500081C0000200000474262
:108D9000007000406C4800684021CA0092FAA2F2BC
:108DA000B2FA82F2114301F01F0201219140084002
:108DB0000028CDD1012E07D163481038006820F07B
:108DC000805061491039086000BF606AF0B35E48A6
:108DD0002C38006800F00C000C287AD0606A022859
:108DE00079D100204FF0807191FAA1F1B1FA81F1AF
:108DF000564A42F82100FEF78FFF054606E0FEF7CF
:108E00008BFF401B022801D9032002E4202001052A
:108E100091FAA1F1B1FA81F108430121B1EB601F90
:108E200003D149483438006801E0474800682021F0
:108E30000A0592FAA2F2B2FA82F2114301F01F027D
:108E40000121914008400028D9D100E07AE0D4E91E
:108E50000A010843216B08433B492C39096821F476
:108E60007D01084338492C3908600120010691FA38
:108E7000A1F1B1FA81F1354A42F82100FEF74CFF29
:108E8000054606E0FEF748FF401B022801D90320F3
:108E900009E42020010591FAA1F1B1FA81F108431A
:108EA0000121B1EB601F03D127483438006801E08D
:108EB0002548006820210A0592FAA2F2B2FA82F24D
:108EC000114301F01F020121914008400028D9D030
:108ED00038E035E0FFE700214FF0807090FAA0F015
:108EE000B0FA80F0194A42F82010FEF715FF054647
:108EF00006E0FEF711FF401B022801D9032058E4C9
:108F00002020010591FAA1F1B1FA81F10843012174
:108F1000B1EB601F03D10C483438006801E00A4807
:108F2000006820210A0592FAA2F2B2FA82F21143F5
:108F300001F01F020121914008400028D9D101E031
:108F4000012036E4002034E4343802400000474277
:108F500002460023106800F1500303EB81031868F8
:108F6000704710B50023046804F1500303EB81033C
:108F70001A6010BD10B504460CB9012010BD607F09
:108F800020B900202077204600F04EF802206077BC
:108F900000BFCA202168486253202168486200BF90
:108FA000204601F045FA40B100BFFF202168486229
:108FB00000BF042060770120E0E72068806819493D
:108FC0000840216888602169606808436169084336
:108FD000216889680843216888602168E068086121
:108FE00020680169208941EA004021680861206801
:108FF000C06820F080002168C8602068006C20F400
:109000008020216808642068006CA16908432168F9
:10901000086400BFFF202168486200BF012060771C
:109020000020ABE7BFFF8FFF10B590B004461D498D
:109030002068884233D100BF1B48006840F0805050
:10904000194908600846006800F08050009000BF91
:1090500000BFFEF75FFF0420039000200C9001206A
:10906000059003A8FFF796FA0120019000040290F2
:1090700001A8FEF75BFF0120810591FAA1F1B1FA89
:1090800081F10A4A02EB8101C1F880060022022127
:109090000320FEF7CAFE0320FEF7BAFE00BF10B0A1
:1090A00010BD000000280040243802400000474264
:1090B0002DE9F04104460D461646002700BF207FEB
:1090C000012802D10220BDE8F0810120207700BFF5
:1090D000022060774EB9687800F01000102804D1A3
:1090E000687800F0EF000A30687086B9E87801F01F
:1090F00092F90304687801F08EF943EA0023A87816
:1091000001F089F90343287843EA403711E0687891
:1091100001F076F90746A87801F072F90746E87879
:109120000004697840EA0120A9780843297840EAD8
:10913000413700BFCA202168486253202168486235
:1091400000BF204601F074F960B100BFFF20216824
:10915000486200BF0420607700BF0020207700BF76
:109160000120B0E713483840216848602068C06893
:1091700020F080002168C860204600F0B3F860B19C
:1091800000BFFF202168486200BF0420607700BF55
:109190000020207700BF012095E700BFFF20216855
:1091A000486200BF0120607700BF0020207700BF29
:1091B00000BF88E73FFFFF002DE9F04104460D4660
:1091C0001646002700BF207F012802D10220BDE8FB
:1091D000F0810120207700BF02206077CEB920689F
:1091E000806800F0400000B102E00020E87000BF9D
:1091F000287801F010F90304687801F00CF943EACB
:109200000023A87801F007F90343E87843EA004710
:1092100016E02068806800F0400020B1287801F056
:10922000EFF8074602E00020E87000BF287800044D
:10923000697840EA0120A9780843E97840EA0147C3
:1092400000BFCA202168486253202168486200BFDD
:10925000204601F0EDF860B100BFFF2021684862B0
:1092600000BF0420607700BF0020207700BF0120EE
:10927000ADE71B483840216808602068806820F40A
:10928000802021688860D5E9010108432168896848
:109290000843216888602068C06820F08000216849
:1092A000C860204600F01EF860B100BFFF202168B2
:1092B000486200BF0420607700BF0020207700BF15
:1092C000012084E700BFFF202168486200BF012021
:1092D000607700BF0020207700BF00BF77E7000065
:1092E0007F7F7F0070B5044600252068C06820F0AD
:1092F000A0002168C860FEF70FFD054607E0FEF7F5
:109300000BFD401BB0F57A7F01D9032070BD2068AA
:10931000C06800F020000028F1D00020F6E710B56A
:1093200004460CB9012010BD94F8510028B9002062
:1093300084F85000204600F031F8022084F85100F3
:109340002068006820F0400021680860D4E901012D
:109350000843E16808432169084361690843218B98
:1093600001F400710843E1690843216A0843A16AD6
:109370000843216808600421A06901EA1040616A7D
:109380000843216848602168E06A08610020606540
:10939000012084F851000020C5E7000010B586B018
:1093A00004463849206888426AD100BF36480068C0
:1093B00040F00100344908600846006800F00100F0
:1093C000009000BF00BF00BF0846006840F00100E9
:1093D00008600846006800F00100009000BF00BF70
:1093E00000BF0846006840F00100086008460068B9
:1093F00000F00100009000BF00BF00BF08460068F9
:1094000040F0010008600846006800F0010000908C
:1094100000BF00BF00BF081D006840F48050091D58
:1094200008600846006800F48050009000BF00BF4C
:109430004FF400400190012002900320049001A904
:109440001248FEF773FB2020019002200290039047
:10945000032004900520059001A90C48FEF766FB47
:10946000802001900520059001A90848FEF75EFBC9
:10947000402001900520059001A90448FEF756FB05
:1094800006B010BD003001401C3802400000024010
:10949000F8B504460E4615461F4694F851000128BB
:1094A00074D106B10DB90120F8BD00BF94F8500089
:1094B000012801D10220F7E7012084F8500000BF05
:1094C000122084F85100002060652663A586E58699
:1094D000E064A064A063A087E087A06AB0F5005FA5
:1094E0000DD100BF2068006820F40050216808609A
:1094F0002068006840F400502168086000BFA06840
:10950000B0F5004F05D12068006840F48040216824
:1095100008602068006800F04000402805D02068FE
:10952000006840F0400021680860E06878BB60682F
:1095300010B1E08E012808D1216B481C2063087807
:109540002168C860E08E401EE08611E03B460022A4
:109550000221204601F0BCFF08B10320A4E7216BE3
:10956000481C206308782168C860E08E401EE086B1
:10957000E08E0028EADCA06AB0F5005F38D12068F0
:10958000006840F480502168086031E05EE0FFE749
:10959000606810B1E08E012809D1206B0088216835
:1095A000C860206B801C2063E08E401EE08612E0C5
:1095B0003B4600220221204601F08AFF08B1032029
:1095C00072E7206B00882168C860206B801C2063D4
:1095D000E08E401EE086E08E0028E9DCA06AB0F54F
:1095E000005F05D12068006840F480502168086061
:1095F0003B4600220221204601F06AFF28B1606D3F
:1096000040F02000606503204EE73B4601228021A8
:10961000204601F05DFF28B1606D40F020006065DC
:10962000032041E7A06840B900BF2068C0680090EF
:1096300020688068009000BF00BF012084F85100BE
:1096400000BF002084F8500000BF2DE702202BE768
:109650002DE9F84304460E4617461D46DDF82080E6
:109660000020009094F85100012803D094F8510094
:10967000222876D10EB107B115B90120BDE8F883D3
:1096800000BF94F85000012801D10220F6E7012024
:1096900084F8500000BF94F85100012802D1322014
:1096A00084F8510000206065A763A587E5872663DD
:1096B000A586E586A064E064A06AB0F5005F0DD1E0
:1096C00000BF2068006820F400502168086020680E
:1096D000006840F400502168086000BF20680068FE
:1096E00000F04000402805D02068006840F04000AD
:1096F00021680860E068B0F5006F75D1606830B12E
:109700006068B0F5827F0CD1E08E012809D1206B12
:1097100000882168C860206B801C2063E08E401E9A
:10972000E086E08EF0B9A06AB0F5005F05D1206850
:10973000006840F4805021680860434600220121FF
:10974000204601F0C5FE08B1032097E72068C068F5
:10975000A16B0880A06B801CA063E08F401EE08797
:10976000C7E019E131E0434600220221204601F022
:10977000AFFE08B1032081E7206B00882168C86034
:10978000206B801C2063E08E401EE086E08E48B98E
:10979000A06AB0F5005F05D12068006840F48050F1
:1097A00021680860434600220121204601F090FE16
:1097B00008B1032062E72068C068A16B0880A06B35
:1097C000801CA063E08F401EE087E08E0028CADC8A
:1097D00060680028C4D1434600220121204601F0E0
:1097E00077FE10B1032049E70AE02068C068A16B4A
:1097F0000880A06B801CA063E08F401EE08778E0AB
:10980000606830B16068B0F5827F0BD1E08E0128CE
:1098100008D1216B481C206308782168C860E08E5D
:10982000401EE086E08ED0B9A06AB0F5005F05D199
:109830002068006840F48050216808604346002298
:109840000121204601F044FE08B1032016E72068FC
:10985000C068A16B0870E08F401EE08749E030E0EF
:10986000434600220221204601F032FE08B10320C7
:1098700004E7216B481C206308782168C860E08EEB
:10988000401EE086E08E48B9A06AB0F5005F05D1C1
:109890002068006840F48050216808604346002238
:1098A0000121204601F014FE08B10320E6E62068FD
:1098B000C068C1B2A26B501CA0631170E08F401E43
:1098C000E087E08E0028CBDC606890B94346002238
:1098D0000121204601F0FCFD08B10320CEE62068FE
:1098E000C068C1B2A26B501CA0631170E08F401E13
:1098F000E087A06AB0F5005F12D143460022012143
:10990000204601F0E5FD28B1606D40F00200606581
:109910000320B3E62068C06880B20090BDF8000064
:10992000434601228021204601F0D2FD28B1606D1E
:1099300040F0200060650320A0E6012084F851007B
:10994000A06AB0F5005F21D120688068C0F30010E4
:10995000E0B1606D40F002006065A06AB0F5005FA4
:109960000DD100BF2068006820F400502168086015
:109970002068006840F400502168086000BF00BF04
:10998000002084F8500000BF012077E600BF0020CF
:1099900084F8500000BF71E602206FE6042808D169
:1099A0004FF0E021096941F004014FF0E02211611C
:1099B00007E04FF0E021096921F004014FF0E022B7
:1099C0001161704710B5FEF7DDF901F013FE10BD0F
:1099D00070B504462546681EB0F1807F01D3012092
:1099E0000FE0681E4FF0E02148610F214FF0FF307B
:1099F00000F078FC00204FF0E0218861072008612A
:109A0000002070BD10B5FFF7DDFF10BD704710B529
:109A1000044620680069C0F34000D8B12068C068DF
:109A2000C0F34000B0B16FF002002168086101206E
:109A300020752068806900F0030018B12046FFF708
:109A4000E5FF05E0204600F08BF8204600F089F89D
:109A50000020207520680069C0F38000D8B120681C
:109A6000C068C0F38000B0B16FF0040021680861E5
:109A7000022020752068806900F4407018B12046EB
:109A8000FFF7C4FF05E0204600F06AF8204600F02A
:109A900068F80020207520680069C0F3C000D8B1C4
:109AA0002068C068C0F3C000B0B16FF00800216842
:109AB0000861042020752068C06900F0030018B117
:109AC0002046FFF7A3FF05E0204600F049F82046B6
:109AD00000F047F80020207520680069C0F30010EE
:109AE000D8B12068C068C0F30010B0B16FF01000AA
:109AF00021680861082020752068C06900F4407062
:109B000018B12046FFF782FF05E0204600F028F854
:109B1000204600F026F8002020752068006900F03B
:109B2000010058B12068C06800F0010030B16FF04A
:109B3000010021680861204600F014F820680069DF
:109B4000C0F3801058B12068C068C0F3801030B1F5
:109B50006FF0400021680861204600F011F810BD48
:109B60007047704710B504462068B0F1804F04D1AB
:109B70000248006808B100F06FFD10BD141300200A
:109B800070477047F8B50446002500262068006835
:109B900000F001052068C06800F4807625B11EB190
:109BA000E06B40F00100E06320680068C0F340050E
:109BB0002068406900F0010625B11EB1E06B40F05D
:109BC0000400E06320680068C0F3800525B11EB181
:109BD000E06B40F00200E06320680068C0F3C0055D
:109BE00025B11EB1E06B40F00800E063206800681A
:109BF000C0F340152068C06800F020061DB116B102
:109C0000204601F00BFF20680068C0F3C0152068F3
:109C1000C06800F080061DB116B1204602F0ECF8D5
:109C200020680068C0F380152068C06800F0400616
:109C30001DB116B1204601F0D9FEE06B70B100BF36
:109C400020680068009020684068009000BF00BF56
:109C5000012084F839002046FFF793FFF8BD10B5C6
:109C600004460CB9012010BDA06900B100E000BF9E
:109C700094F8390028B9002084F83800204600F014
:109C800025F8022084F839002068C06820F40050CC
:109C90002168C860204601F003FF2068006920F4B5
:109CA0009040216808612068406920F02A002168FE
:109CB00048612068C06840F400502168C8600020F6
:109CC000E063012084F839000020CCE710B586B0AD
:109CD000044638492068884232D100BF36480068BF
:109CE00040F00100344908600846006800F00100B7
:109CF000009000BF00BF00BF081D006840F4804016
:109D0000091D08600846006800F48040009000BF0C
:109D100000BF4FF4C0600190022002900120039028
:109D2000022004900720059001A92448FDF7FEFEBB
:109D3000002201212520FEF778F82520FEF768F89B
:109D40001F492068884233D100BF1B48006840F09B
:109D50000100194908600846006800F00100009001
:109D600000BF00BF00BF14480830006840F4003056
:109D70001149083108600846006800F4003000907E
:109D800000BF00BF0C200190022002900120039030
:109D9000022004900720059001A90848FDF7C6FE9F
:109DA000012211462620FEF740F82620FEF730F863
:109DB00006B010BD003801401C38024000000240CF
:109DC0000044004030B50346002493F83940012C8C
:109DD00001D0122C37D101B10AB9012030BD00BF2A
:109DE00093F83800012801D10220F7E7012083F819
:109DF000380000BF99629A85DA850020D86393F80D
:109E00003900122803D1322083F8390002E02220E1
:109E100083F8390000BF002083F8380000BF1868BD
:109E2000C06840F480701D68E8601868406940F0C0
:109E300001001D6868611868C06840F020001D6856
:109E4000E8600020CAE70220C8E70000854A0168F0
:109E500091422BD18449098801F4004100297AD12B
:109E60008149098801F4804100293DD07F49097862
:109E70000A291CD07C4909884BF6FF7211407A4AA6
:109E800011807A4909781288C2F30D02784B9954EF
:109E900075490988491C744A118011460988C1F323
:109EA0000D01B1F5806F56DB0021118053E06F4941
:109EB00009786D4A1288C2F30D026D4B99546A49B4
:109EC0000988491C684A118011460988C1F30D01AF
:109ED000B1F5806F01DB002111806349098841F4ED
:109EE0000041614A118036E0604909780D291CD192
:109EF0005E4909785C4A1288C2F30D025C4B9954A2
:109F000059490988491C584A118011460988C1F3EA
:109F10000D01B1F5806F01DB0021118052490988E4
:109F200041F48041504A118015E0504909784E4A69
:109F30001288C2F30D024E4B99544B490988491CB3
:109F4000494A118011460988C1F30D01B1F5806FAE
:109F500001DB00211180474A016891422AD146491C
:109F6000098801F4004100297AD14349098801F4A4
:109F70008041E9B3414909780A291CD03E49098842
:109F80004BF6FF7211403C4A11803C490978128817
:109F9000C2F30D023A4B995437490988491C364A95
:109FA000118011460988C1F30D01B1F5806F57DBAF
:109FB0000021118054E0314909782F4A1288C2F3F8
:109FC0000D022F4B99542C490988491C2A4A1180AB
:109FD00011460988C1F30D01B1F5806F01DB002145
:109FE00011802549098841F40041234A118037E056
:109FF000FFE7224909780D291CD1204909781E4A1A
:10A000001288C2F30D021E4B99541B490988491C42
:10A01000194A118011460988C1F30D01B1F5806F0D
:10A0200001DB002111801449098841F48041124A62
:10A03000118015E0114909780F4A1288C2F30D0208
:10A040000F4B99540C490988491C0B4A1180114641
:10A050000988C1F30D01B1F5806F01DB002111808A
:10A06000704700000038014010000020140000205C
:10A07000D8000020004400401200002015000020FD
:10A08000D8040020704700BFFEE7000010B502486A
:10A09000FDF770FE10BD0000CC00002070B5044636
:10A0A0000D46044804490860084644608560FDF791
:10A0B00039FE70BD00300040CC00002000B587B0F4
:10A0C00000BF5448006840F001005249086008464B
:10A0D000006800F00100019000BF00BF00BF08460B
:10A0E000006840F0020008600846006800F00200C6
:10A0F000019000BF00BF00BF0846006840F00400A8
:10A1000008600846006800F00400019000BF00BF2E
:10A1100000BF0846006840F0080008600846006874
:10A1200000F00800019000BF00BF00BF08460068B3
:10A1300040F0100008600846006800F01000019030
:10A1400000BF00BF00BF0846006840F02000086064
:10A150000846006800F02000019000BF00BF49F6EB
:10A16000FF7002900320039000200490059002A944
:10A170002948FDF7DBFC4FF6FF70029002A9274843
:10A18000FDF7D4FC4FF6FF70029002A92448FDF7BA
:10A19000CDFC4FF6FF70029002A92248FDF7C6FCE5
:10A1A0004FF6FF70029002A91F48FDF7BFFC032085
:10A1B000029002A91D48FDF7B9FCC02002900120C1
:10A1C0000390022004900020059002A91348FDF797
:10A1D000ADFC1048006820F001000E4908600846F8
:10A1E000006820F0020008600846006820F00400C3
:10A1F00008600846006820F008000860084600680B
:10A2000020F0100008600846006820F02000086078
:10A2100007B000BD1C3802400000024000040240AC
:10A2200000080240000C02400010024000140240EE
:10A2300000BFFEE700B587B000BF1048006840F0DF
:10A2400001000E4908600846006800F00100019016
:10A2500000BF00BF881502900120039000200490E9
:10A260000320059002A90648FDF760FC01221102B7
:10A270000348FDF74BFD07B000BD00001C3802404D
:10A280000000024000B587B000BF0F48006840F0F2
:10A2900001000D4908600846006800F001000190C7
:10A2A00000BF00BF01200290039000200490032013
:10A2B000059002A90548FDF739FC00220121034859
:10A2C000FDF724FD07B000BD1C380240000002402D
:10A2D0007047000002480068C0F302207047000089
:10A2E0000CED00E010B5002807DA0A07140E054A45
:10A2F00000F00F031B1FD45403E00A07130E024A99
:10A30000135410BD18ED00E000E400E070470000B9
:10A3100010B5FFF78FFF00F0B3F9FFF7B3FF01F0BF
:10A320002DFE012211020948FDF7F0FC0022082150
:10A330000748FDF7EBFC002201210448FDF7E6FC8D
:10A34000012211030148FDF7E1FC10BD00000240AD
:10A350000004024018B50246002300212548006889
:10A3600000F0F00050BB23481C30006800F0805023
:10A3700020B12148006800F4C05318E000BF1D4818
:10A380001C30006840F080501A4C1C34206020467D
:10A39000006800F08050009000BF00BF16480068C1
:10A3A00000F4C0532046006820F080502060B3F5D0
:10A3B000C05F03D1B2F5404F00D1012100BF012998
:10A3C00005D10E48006840F004000C4C20600B489A
:10A3D000006820F001000843084C206000BF2046C0
:10A3E000006800F00100884201D0012018BD002063
:10A3F000FCE700000838024000700040003C0240CA
:10A40000014600BF080900EB8000420001F00F0088
:10A410001044C0B270470146002203E0521CA1F173
:10A420000A00C1B20A29F9DA100741EA1060704740
:10A4300070B5044600252068C06800F04000A0B94F
:10A44000681E2168C860FDF767FC054607E0FDF758
:10A4500063FC401BB0F57A7F01D9032070BD2068F2
:10A46000C06800F040000028F1D00020F6E70000AE
:10A4700010B5164816490860002048607F2114482E
:10A480008160FF21C1600021016141618161FEF7AE
:10A4900071FD08B1022010BD00210D48FEF758FDE6
:10A4A00045F2500188420FD001221146122000F0DF
:10A4B00011F8002211460C2000F04EF845F250022F
:10A4C00000210348FEF74DFD0020E4E7002800408E
:10A4D000AC000020F8B504460D4616468DF8026023
:10A4E0008DF801508DF80340012D01D0022D04D1CB
:10A4F00005F10C00C5B2601EC4B2691C01EB41013C
:10A50000052291FBF2F1022202FB05621144214473
:10A510002046E21704EB927201EBA201642294FB45
:10A52000F2F2891A4FF4C87294FBF2F21144491CFA
:10A53000072291FBF2F302FB1311CFB20FB90720F0
:10A5400000E038468DF80000002269460148FEF719
:10A55000AFFDF8BDAC000020FEB504460D46164622
:10A560008DF800408DF801508DF802600C2C01DA56
:10A57000002000E040208DF80300002001900290B0
:10A58000002269460148FEF717FEFEBDAC00002020
:10A5900010B52A480068B0F5987F11DB284800689C
:10A5A00000B110BD00202549086026480068401C05
:10A5B0002349086023480068C0F101002149086070
:10A5C00020480068E0B92048008820491B4A1268EA
:10A5D00041F8220019480068C0F59870322101EB5B
:10A5E000C003002211461A48FDF7AAF900211848B5
:10A5F000FDF7BCF911480068401C104908601BE0D9
:10A600001148008813490D4A126841F822000B488E
:10A610000068C0F59870322101EBC003002211469A
:10A620000B48FDF78DF900210948FDF79FF9034814
:10A630000068401C0149086000BFB2E744000020E8
:10A640004C0000204800002058000020780900201D
:10A6500014130020380E002010B5084800680128A7
:10A6600005DA0A2005490860FFF792FF04E0034875
:10A670000068401E0149086010BD00005400002021
:10A6800000B587B000BF1048006840F002000E49D6
:10A6900008600846006800F00200019000BF00BF9B
:10A6A00008200290012003900020049003200590D0
:10A6B00002A90648FDF73AFA002208210348FDF7EF
:10A6C00025FB07B000BD00001C380240000402401A
:10A6D00010B500221146104601F04AFD1948807954
:10A6E00000F0080040B1012001F0E6FC022001F07A
:10A6F00027FD082001F0E0FC1248807800F02000DF
:10A7000008B1202010BD0F48807800F0100008B17B
:10A710001020F7E70B48807800F0080010B1022005
:10A7200001F00EFD0748807800F0020008B1022019
:10A73000E8E70448807800F0010008B10120E1E773
:10A740000020DFE7D419002000200149087070477D
:10A75000780000202DE9F04106468846002442F2A8
:10A76000107519E000F0BEF8442000F0EDF800F09C
:10A77000D7F80446FF2C07D11EB14146304600F001
:10A78000D4F800F09BF809E000F098F86D1E05275A
:10A7900000E07F1E002FFCD1002DE3D100BF1DB9CA
:10A7A00000E000E0FDE700BFFF2C02D101200249DC
:10A7B00008702046BDE8F0817800002010B5002127
:10A7C0000846FFF7C7FF10BD2DE9F04180460C4653
:10A7D00015461E460A275CB105E0FFF7EFFF781E1D
:10A7E000C7B207B903E00A4800780028F5D000BFD7
:10A7F00000F078F8404600F0A7F83146284600F00F
:10A8000094F800F05BF8002001490870BDE8F08181
:10A810007800002070B505460E460A2405E0FFF7D3
:10A82000CDFF601EC4B204B903E0084800780028D8
:10A83000F5D000BF00F056F83146284600F08AF8FF
:10A8400000F03CF800200149087070BD780000203D
:10A850002DE9F04106460F4614461D46394630465E
:10A86000FFF7D8FF29462046FFF774FFBDE8F081C7
:10A870002DE9F04180460C4615461E460A275CB17C
:10A8800005E0FFF79BFF781EC7B207B903E00A484F
:10A8900000780028F5D000BF00F024F8404600F012
:10A8A00053F83146284600F055F800F007F800202C
:10A8B00001490870BDE8F0817800002010B5012240
:10A8C000D1030248FDF722FA10BD0000000002404B
:10A8D00010B5012210210248FDF718FA10BD000042
:10A8E0000004024010B500224FF400410148FDF77A
:10A8F0000DFA10BD0000024010B5002210210248E0
:10A90000FDF704FA10BD00000004024010B54FF43A
:10A9100080610248FDF7F2F910BD0000000402401A
:10A9200010B5FF2000F028F810BD70B505460C46A4
:10A9300004E0FF2000F020F804F8010B281EA5F128
:10A9400001018DB2F5D170BD10B50446204600F06E
:10A9500013F810BD70B504460D462946204600F098
:10A960001DF870BD10B5002401F072FC00E0641CFD
:10A97000B4F5805FFBD310BD01B582B0002001901B
:10A980006420012301AA02A900900348FEF760FE9B
:10A990009DF804000EBD00007818002070B5044634
:10A9A0000D466423224629460148FEF771FD70BD1D
:10A9B0007818002010B50446204600F09DFA10BD1E
:10A9C000F8B50026464C4748007800B9F8BDFFF7B7
:10A9D0007FFE0546202D02D100F056FB7EE0022DC1
:10A9E00002D100F023FB79E0102D44D13E480078DD
:10A9F000401C3E490978401AC6B23D48007860B90B
:10AA00003949012001F01AFC611C3748007801F037
:10AA100015FC3548007820700AE034480078211889
:10AA2000304601F00BFC3148007830442F49087063
:10AA30000020304908702D4908702D490870FF200A
:10AA40000023112202210090122001F00FFC0021AE
:10AA50002948007800F03CFB204601F009FD10B1C8
:10AA60001F48FFF7A7FFFF212046FAF721FF01202B
:10AA70002049087032E0012D30D11D48007848B9D6
:10AA80002146012001F0DAFB2078174908700020E8
:10AA90001649087014480078401C14490978401A77
:10AAA000C6B23E2E1AD31248007820B9611C3D2050
:10AAB00001F0C4FB05E00D48007821183E2001F0AC
:10AAC000BDFB0A4800783E30084908700848007805
:10AAD00020B907480078401C0549087000BF75E799
